:04000005080000C12E
:020000040800F2
:1000000000200020D500000899760008E5000008CF
:1000100000000000000000000000000000000000E0
:10002000000000000000000000000000E7000008E1
:100030000000000000000000E9000008998D0008A1
:10004000BDAF0008457800085B7800080937000854
:10005000B17C00089D3200089F320008A1320008E0
:1000600081500008112A0008132A0008152A0008E8
:10007000FD15000875910008AD910008B1910008C8
:10008000C59200080D9300080F9300086F910008B7
:10009000011600087191000873910008C150000812
:1000A00041220008258A0008278A00089DA0000830
:1000B000A1A00008ED000008C5A000080000000095
:1000C0000348854601F056FA00480047D515000858
:1000D00000200020064880F308880648804706482C
:1000E0000047FEE7FEE7FEE7FEE7FEE7FEE700006B
:1000F00000200020FD8F0008C1000008F0B502229A
:10010000825E0421684B415E5A434C10D61332196B
:10011000331B5242654D002A64DC002B20DC524226
:100120005B4212B2691AC2801BB249100381A94214
:1001300000DD2946002901DA002400E00C46048293
:10014000511801D5002200E00A4659188281A942BF
:1001500000DC0D46002D00DA0025C5810220F0BD2F
:10016000002921DC49420BB251420AB2A91BC380CB
:1001700009190281491001D5002400E00C465918E4
:10018000C481A94200DD2946002901DA002300E0EC
:100190000B4651180382A94200DC0D46002D00DAFF
:1001A000002585810620F0BDC1801BB25219038154
:1001B000521001D5002400E0144689180482A94297
:1001C00000DD2946002901DA002200E00A4659181C
:1001D000C281A94200DD2946002900DA002181817F
:1001E0000120F0BD002B40DC5C4226B24C42C680B0
:1001F00024B2048100291ADCA91A491001D5002271
:1002000000E00A4671188281A94200DD29460029D2
:1002100001DA002200E00A466318C281AB4200DD29
:100220002B46002B00DA002303820420F0BD14B219
:10023000C4805A190181521001D5002300E01346F1
:10024000A2188381AA4200DD2A46002A01DA00238F
:1002500000E013468E180382AE4200DC3546002DC6
:1002600000DA0025C5810320F0BD1BB2C38012B2A5
:1002700049190281491001D5002400E00C465918A3
:10028000C481A94200DD2946002901DA002300E0EB
:100290000B4654188381AC4200DD2C46002C00DA5A
:1002A000002404820520F0BDDA6E0000FF7F00000C
:1002B0000122D20382181204930D0322120213406A
:1002C000012270B5D20382189204120E5200E04C43
:1002D000002B14D00126F60381198904FF25090E8D
:1002E000691A4900FF3B5B1E0BD0FF3B5B1E04D02D
:1002F000FF3B012B00D1605E70BDA05E70BDA05AB7
:1003000000E0605A404200B270BD0122D203821860
:100310001204930D032212021340012230B5D203BE
:1003200082189204120EFF24A21A5200C84C002B0D
:1003300012D00125ED0341198904090E4900FF3B44
:100340005B1E0DD0FF3B5B1E04D0FF3B012B02D197
:10035000605A02E0A05E30BDA05A404200B230BDFB
:10036000605E30BD0121C903411809048A0D0321D3
:1003700009020A400121C90340188004010EFF2030
:1003800008B5401A4000B24B4900002A16D0FF3A87
:10039000521E19D0FF3A521E03D0FF3A012A0BD148
:1003A00004E0185A6A461080585A04E0595A6A46BE
:1003B00049421180185A5080009808BD185A6A4660
:1003C00040421080585A03E0595A6A461180185A20
:1003D0004042F0E770B506460020085E0C467043C8
:1003E00002214000615E00F02BF905460420205EEA
:1003F000062146437000615E00F022F9A1680C22DC
:100400000918A160A25E1004814205DAE0890004A7
:10041000814201DDA06800E0A060001429140818E2
:100420008C49884200DD08468A49C943884200DA7F
:10043000084600B20123824201DA104604E00E2190
:10044000615E814202DD0846238270BD0021218267
:1004500070BD70B5044600200C21205E615E1C2238
:100460004143CB131821615EA25E1E25891A022228
:10047000A25E5143C9135918A1810E23E35E655F43
:100480005843C3131A20205E401B5043C0131A1850
:10049000E281208A081A618A00B2511A0DB2042141
:1004A000615E814201DCE0880DE04942814202DB6D
:1004B000E088404207E00821615E4143C8130A21F9
:1004C000615E00F0BDF8A0830420205EA84201DC3C
:1004D000E0880DE04042A84202DBE088404207E0AD
:1004E0000820205E0A216843C013615E00F0A8F86E
:1004F000E0831C20205EA0821E21615EE18220221A
:10050000A25E002A03DA4042A0824842E08270BD27
:1005100070B505461020085E0C4668431221400065
:10052000615E00F08DF806460C20205E0E214543EA
:100530006800615E00F084F8A16809183046A16087
:1005400000F06EF814216060615E82B200144A43CC
:100550004843D213400016211018615E00F070F875
:10056000216808182060001470BDF0B50423394ECE
:1005700000250224CB5E02464D5F0C5FF743934299
:100580000CDA5819B04200DD3046B84200DA38467D
:1005900000B2134690420FDD18460DE00546934227
:1005A0000ADD181BB04200DC0646BE4200DA3E46B9
:1005B00030B2A84200DA1046904201D1012200E098
:1005C0000022CA808880F0BD70B50D460B68AA680D
:1005D00004464968A24207DA1946104600F020F89E
:1005E0002146A04213DC13E0A24211DD501A494219
:1005F00016460E430346B3430A40824301D5012009
:10060000C007002B00DA14482146A04200DA084651
:10061000A04201D1012100E00021A981A86070BDA4
:10062000024610B5144640180C430346A3430A4043
:10063000824301D50120C007002B00DA064810BD17
:10064000002902DA4942084170478840704700009B
:10065000B0BD0008FF7F0000FFFFFF7FF0B45B48E4
:100660000168C91C01605A4801680068884254D179
:1006700058480168006888424FD1012154480268F7
:100680000068904249D1534802680068904244D1C2
:1006900002224F480368006898423ED14D480368E3
:1006A0000068984239D10323494804680068A04291
:1006B00033D1484804680068A0422ED1042444483D
:1006C00005680068A84228D1424805680068A84229
:1006D00023D105253E4806680068B0421DD13D483B
:1006E00006680068B04218D10626394807680068D5
:1006F000B84212D1374807680068B8420DD10727C1
:10070000334800688046404507D13248006880463B
:10071000404502D10820804602E0022004F01CFA85
:100720002B48006881464845F7D12A480068814631
:100730004845F2D109208146254800688246504547
:10074000EBD12448006882465045E6D10A20824613
:100750001F48006883465845DFD11E48006883461D
:100760005845DAD10B208346194800688446604515
:10077000D3D11848006884466045CED10C20844609
:1007800015480129C9D1022AC7D1032BC5D1042C90
:10079000C3D1052DC1D1062EBFD1072FBDD1082051
:1007A0004045BAD109204845B7D10A205045B4D1B7
:1007B0000B205845B1D10C206045AED107480168E7
:1007C000C91E0160F0BC0120704700BF300000204E
:1007D000E0070008E407000821070008580000208F
:1007E000AAAAAAAA5555555500000080A8AAAAAAE7
:1007F00054555555F0B40020C0B2003068D167D4CC
:10080000013865D5023063D362D061D47048006886
:1008100000185DD76F480168C91C01606E48016807
:100820000068884254D16D480168006888424FD101
:100830000121694802680068904249D1674802680E
:100840000068904244D102226348036800689842DD
:100850003ED1624803680068984239D103235E485C
:1008600004680068A04233D15C4804680068A04274
:100870002ED10424584805680068A84228D157485A
:1008800005680068A84223D105255348066800681A
:10089000B0421DD1514806680068B04218D1062602
:1008A0004D4807680068B84212D14C480768006894
:1008B000B8420DD10727484800688046404507D117
:1008C000464800688046404502D10820804602E044
:1008D000032004F041F94048006881464845F7D1BB
:1008E0003E48006881464845F2D1092081463A4891
:1008F000006882465045EBD1384800688246504532
:10090000E6D10A2082463448006883465845DFD144
:100910003248006883465845DAD10B2083462E487A
:10092000006884466045D3D12C4800688446604501
:10093000CED10C2084462A480129C9D1022AC7D128
:10094000032BC5D1042CC3D1052DC1D1062EBFD197
:10095000072FBDD108204045BAD109204845B7D15D
:100960000A205045B4D10B205845B1D10C20604528
:10097000AED1EFF309801B49096881F30988EFF3D1
:1009800009828A42A4D11849096881F30988EFF3E2
:1009900009828A429CD180F30988EFF308801149CB
:1009A000096881F30888EFF308828A4290D10E49E2
:1009B000096881F30888EFF308828A4288D180F3BE
:1009C00008880A480168C91E0160F0BC0120704710
:1009D000E807000830000020E0070008E4070008EE
:1009E000D7080008EC070008F007000858000020AE
:1009F000FCFFFFFF000000000400000008000000F2
:100A00000C0000001000000014000000180000009E
:100A10001C000000F8FFFFFF0000000004000000C1
:100A20000C0000000800000010000000140000008E
:100A30001C00000018000000012400220023B04A1E
:100A4000B04B12681B6805008D4202D82A602D1D2C
:100A5000FAE705008D4211D82E68964257D12B60D7
:100A60006E68964253D16B60AE6896424FD1AB60D0
:100A7000EE6896424BD1EB601035EBE705008D42F6
:100A800011D82E689E4242D12A606E689E423ED1A5
:100A90006A60AE689E423AD1AA60EE689E4236D144
:100AA000EA601035EBE70D000F3D854211D3EE688B
:100AB00096422CD1EB60AE68964228D1AB606E684E
:100AC000964224D16B602E68964220D12B60103D57
:100AD000EBE70D000F3D854211D3EE689E4216D123
:100AE000EA60AE689E4212D1AA606E689E420ED144
:100AF0006A602E689E420AD12A60103DEBE705002D
:100B00008D4205D82E68964201D12D1DF8E70024AC
:100B100020007047012413005B425B1E05008D42DC
:100B200002D82A602D1DFAE705008D4211D82E68E3
:100B3000964257D12B606E68964253D16B60AE6877
:100B400096424FD1AB60EE6896424BD1EB601035C8
:100B5000EBE705008D4211D82E689E4242D12A60F3
:100B60006E689E423ED16A60AE689E423AD1AA60EB
:100B7000EE689E4236D1EA601035EBE70D000F3D7E
:100B8000854211D3EE6896422CD1EB60AE68964256
:100B900028D1AB606E68964224D16B602E68964275
:100BA00020D12B60103DEBE70D000F3D854211D3A6
:100BB000EE689E4216D1EA60AE689E4212D1AA60EB
:100BC0006E689E420ED16A602E689E420AD12A60EB
:100BD000103DEBE705008D4205D82E68964201D105
:100BE0002D1DF8E7002420007047F0B4464D2E6814
:100BF0000B362E6013005B425B1E444C05008D4299
:100C000040D00025665987592D1D4F51142DF9DD0F
:100C10000025665982512D1D142DFADD00256659D7
:100C20008759974266D183512D1D142DF7DD00257C
:100C3000665987599F425DD182512D1D142DF7DDD4
:100C400018252D1F66598759974253D18351002D7E
:100C5000F7D818252D1F665987599F424AD18251CE
:100C6000002DF7D8002566598759974242D12D1D8E
:100C7000142DF8DD18254F592D1F66598751002D69
:100C8000F9D831E00425665982512D1D202DFADD59
:100C900004256659875997422CD183512D1D202D4B
:100CA000F7DD0425665987599F4223D182512D1DB6
:100CB000202DF7DD24252D1F66598759974219D11C
:100CC0008351042DF7D824252D1F665987599F423B
:100CD00010D18251042DF7D80425665987599742BF
:100CE00008D12D1D202DF8DD094C25680B3D256010
:100CF000012000E00020F0BC704700BF00BF00BF33
:100D0000E0070008E407000834000020F0090008AC
:100D10005C00002030B50B46014600202022012453
:100D200009E00D46D5409D4205D31D469540491B1F
:100D30002546954040191546521E002DF1DC30BD68
:100D400070B500242546002801DA0124404200291C
:100D500001DA01254942FFF7DDFFAC4200D04042F5
:100D6000002C00D0494270BD002800DA4042704794
:100D700003460B439B0703D009E008C9121F08C0B4
:100D8000042AFAD203E00B780370401C491C521E5F
:100D9000F9D27047024670B54A40D30FDB074000D6
:100DA0002DD04A002AD0010E140E00021202091999
:100DB000400A520A8418E50104465443000A120A04
:100DC0002E045043A4194219200CC543AA18120C32
:100DD0000125AD03521C521912047F39240400D09E
:100DE000521C104301D44000491EC2B20C06C00977
:100DF0002018401C4008802A02D003E0002070BD6B
:100E000040084000002900DA0020184370BD70B58A
:100E100002464A40D50F40004A00ED0740085208FC
:100E2000002814D0002A12D0C40DD30D4102012095
:100E3000C0055202490A520AE41A091812187D34F0
:100E4000914201D3641C00E04900002C01DA00202B
:100E500070BD0023914201D3891A03434008490021
:100E60000028F7D100290AD0914202D10121C907F7
:100E700005E0914201D2012101E00121C943E005D1
:100E8000C018401900F0A2FA70BD0000F0B5074686
:100E90000846584087B0C00F049048000E465900DD
:100EA00040084908BC1A884105D2384631461E46DA
:100EB00017460B4602465800400810434CD0300DF0
:100EC000039040055900400D490D0590401A0290CD
:100ED000402872DA18030121000B0905084301902C
:100EE00004980092002805D00199524200208841C0
:100EF00000920190029840210A1A0199009800F08E
:100F000031FA05460C466B4607CB00F04CFAC01987
:100F10007141039A0E0D0023D71756401A467A40A6
:100F2000164344D0049A002A2DD0029A012A039A2B
:100F300015DC1205C01A914101263605001C7141CD
:100F4000D20F059ED2070093019202962A462346AD
:100F500000F08AFA07B0F0BD38463146FAE71605C8
:100F6000224A0F46B218C01AB74101210905001CD8
:100F70004F4100187F41114618187941E20F104384
:100F80006D19644113E0E2076D0815436408C20758
:100F90001443039A01261205C01A91413605001C1C
:100FA0007141CE07400830434908C01851412A46D4
:100FB000234600F04CFACDE7FFE7049801224000F9
:100FC000C117121A00238B4104983146C417381AEE
:100FD000A141EEE730B40124E407634030BC55E79B
:100FE00030B40124E407614030BC4FE70000E0FF6B
:100FF000F0B51FB488B00B990998002448400999AE
:10100000C00F490049080991C0070B990090490099
:1010100049080B9109990898A64608431CD00B99DA
:101020000A98084318D0099801244000420D48004E
:10103000410D099824050003000B204309900B98EB
:101040000003000B20430B9050181C49401800224D
:1010500001901446104605E0002001460DB0F0BD99
:10106000032801DA034600E003239C46C11A0AAEB6
:101070000AE05F0008ADED5B4F00F75B7D430027A2
:10108000AA187C41491C5B1E6145F2DD410004AB9E
:101090005A522104120C0A43240C401C0828DFDB9E
:1010A000019802900099704601910090059B049A66
:1010B0000799069800F0D8F9D0E700000DFCFFFF73
:1010C000F0B50C465C4085B0E40FE40703944C0097
:1010D00000266408590094464908024602962243B5
:1010E00021D062460A431ED06200570D4A000E030B
:1010F0002303550D012402462C492405781B1B0BA4
:10110000360B401823432643614600901C46501A74
:10111000B44103D30098401C009002E0921800985C
:101120005B41002803DA0020014605B0F0BD002035
:10113000012109050746864611E064461D46141B39
:10114000B54106D36546521BB341744607430C4371
:10115000A646CD0740084908284392185B4105463A
:101160000D43EAD11046184313D06046194650404B
:101170007140084306D06046101AB34106D20122DE
:10118000002306E000220123DB0702E00122D24314
:101190005310009874460105381C6141029C039D60
:1011A0000019694100F053F9BFE70000FD0300009A
:1011B00010B5002904DB0C460121C9074042A141BA
:1011C000002B04DB1C460123DB075242A341801A9B
:1011D000994101D3012010BD002010BD10B5002998
:1011E00004DB0C460121C9074042A141002B04DB6E
:1011F0001C460123DB075242A341101A8B4101D246
:10120000012010BD002010BD10B5002904DB0C46E4
:101210000121C9074042A141002B04DB1C460123E8
:10122000DB075242A341101A8B4101D3012010BDAC
:10123000002010BD10B500229623114600F0CEF814
:1012400010BD00000EB5C217C10F5040CA074018AC
:101250000021054B0293019200910A460B4600F0D3
:1012600003F903B000BD0000330400004100400258
:101270000122400AD205090E80187F2901DA0020D8
:101280007047962903DC9622511AC8407047963958
:101290008840704770B5CD0F4A0009030123090B40
:1012A0001B0519430B4BED070024520D9A4201DA3E
:1012B000002070BD074B34339A4203DC9A1A00F0C9
:1012C00061F802E00449511888402C43F1D04042B3
:1012D00070BD0000FF030000CDFBFFFFC20FD2076F
:1012E000400040080BD0C10D0723DB01C9184002A4
:1012F0000905400A1143C208400711437047002006
:1013000001467047F0B51FB40646002082B005467E
:101310004024019100901BE0019922460F4630467F
:1013200000F030F8049A059B801A994110D31046BA
:101330001946224600F016F8361A8F4101972246C8
:1013400001200021009F00F00DF838184D41009059
:101350002046641E0028DFDC019B009829463246A7
:1013600007B0F0BD10B5202A04DB0146203A9140B9
:10137000002010BD914020239C1A0346E3401943EE
:10138000904010BD10B5202A04DB0846203AD0401A
:10139000002110BD0B46D340D0402024A21A91401A
:1013A0000843194610BD10B5202A06DBCB170846A6
:1013B000203A1041C1170B4306E00B461341D040C1
:1013C0002024A21A91400843194610BD002904DACE
:1013D000401C490001D140084000704770B400240F
:1013E000050C05D11024000402D1002921D01124BC
:1013F000050E01D100020834050F01D10001241DA2
:10140000850F01D18000A41C002801DB4000641C72
:10141000002908D020252E1B0D46F540A14000D004
:1014200001212943084301061B1B000ADB1D02D5CD
:10143000002070BC7047DB05181880180029F8DA06
:10144000401C4900F5D170BC40084000704710B501
:10145000002B08DA0024401C614192185B411A43BA
:1014600001D14008400010BDF0B51FB482B0054660
:101470000C0003D008460AF01FF802E00AF01CF83E
:1014800020300246009021462846FFF76BFF049B60
:10149000059A04460F4618431143084314D01846D2
:1014A00010431BD0009840210A1A18460599FFF7EF
:1014B00069FF05460E46009A05990498FFF752FF0A
:1014C000084305D0012004E02046394607B0F0BDAE
:1014D0000020C11705430E432C43374300990E9853
:1014E0006305401A7905E40A00220C43FD0A0A301C
:1014F00002D500200146E9E70105101969410C9C5D
:101500000D9D00196941FFF7A2FFDFE74A000903BB
:101510000123090B1B0519430A4B10B5520D9A42C2
:1015200002DA0020014610BD064B34339A4203DC38
:101530009A1AFFF727FF10BD034BD218FFF712FFCF
:1015400010BD0000FF030000CDFBFFFF10B5002918
:1015500004DB0124E40740428C412146002B04DBDC
:101560001C460123DB075242A341994200D190421D
:1015700010BD0000064C0125064E05E0E36807CCCF
:101580002B430C3C98471034B442F7D3FEF79CFD34
:1015900054C60008C4C6000830B58C180278401C38
:1015A00013071B0F01D10378401C120906D10278E2
:1015B000401C03E005780D70401C491C5B1EF9D1EE
:1015C00001E00B70491C521EFBD1A142E6D3002062
:1015D00030BD000080B582B007480068AA2803D05B
:1015E000FFE703F0DFFFFFE703480021016009F098
:1015F000BDFE019002B080BD043002407047000083
:1016000080B582B0554800680121084200D1A2E0AF
:1016100053480178491C017002F018FA51490880BA
:1016200007F018FA504800887F2817DCFFE74E487B
:101630000188491C01805448006854490840504AB8
:101640001368181810605248006808404D490A682D
:1016500010180860012001F0CFF957E042480088D7
:1016600080281AD1FFE740480188491C018044487E
:101670000168C909016043490A68D2090A600A6819
:10168000D2003A4B5A850A68D2009A85002202603D
:101690000A60012001F0B0F937E0002001F0ACF958
:1016A0003248019003F0ACFC3148007880003149A9
:1016B0000858804730480178491C0170C8B2E421BD
:1016C000019A515A884208DBFFE72B48002101703C
:1016D0002648E62101224254FFE728480178491CA8
:1016E0000170C8B22149E422895A0A224A43904231
:1016F00008DBFFE72148002101701C48E721012297
:101700004254FFE701F060FFFFE7FFE7134801687D
:1017100001221143016002F099F91E4908800888EE
:101720001049098888420DDAFFE70E480088012138
:101730000904081A184908800888164A128880186F
:10174000088007E01348008806490988401A1249B2
:101750000880FFE7FFE702B080BDC04614280140C3
:10176000520400204E04002060010020A00400204C
:101770005A01002044C300086C0100206D010020C4
:10178000640100206801002018240140FF0F0000C0
:1017900018280140500400204C040020B0B586B049
:1017A00013460C460546059004A8017003A90A706B
:1017B00001780F22114001700078072802940193EC
:1017C000009513DCFFE704A8017889000F228A4006
:1017D0000599CB6D9343CB6503A909780078800008
:1017E00081400598C26D0A43C26514E004A80178DF
:1017F000890020390F228A4005990B6E93430B66AE
:1018000003A9097800788000203881400598026E8D
:101810000A430266FFE706B0B0BD84B00A4603463D
:10182000039002A80170007800280192009306D06E
:10183000FFE70398816E01221143816605E003985A
:10184000816E012291438166FFE704B0704784B046
:101850000A460346039002A80170007810280192FE
:10186000009304DBFFE702A80F210170FFE702A845
:1018700000780399486604B0704784B00A4603466E
:10188000039002A80170007800280192009306D00E
:10189000FFE70398816E20221143816605E00398DB
:1018A000816E202291438166FFE704B0704710B536
:1018B00082B0014601900198826E01231C052243EB
:1018C0008266019842681A4342600091FFE70198DE
:1018D000806D01210906084201D1FFE7F7E702B058
:1018E00010BD84B00A460346039002A80170007838
:1018F00001280192009306D1FFE703984169012274
:101900001143416105E0039841690222114341619D
:10191000FFE704B0704784B00A460346039002A86C
:101920000170007800280192009306D0FFE7039829
:10193000416801221143416005E00398416801229A
:1019400091434160FFE704B0704784B00A46034604
:10195000039002A80170007800280192009306D03D
:10196000FFE70398816804221143816005E0039832
:101970008168042291438160FFE704B07047B0B5ED
:1019800086B013460C460546059004A8017003A9CD
:101990000A700078012802940193009512D1FFE7A4
:1019A00003A80078002806D0FFE705988168012287
:1019B0001143816005E005988168012291438160AF
:1019C000FFE711E003A80078002806D0FFE705989C
:1019D000816802221143816005E005988168022236
:1019E00091438160FFE7FFE706B0B0BD10B584B05A
:1019F0000A46034603900291039841680E4C214029
:101A000041600298416800680143039844680C43B0
:101A1000446003988168094C2140816002984169C3
:101A20000469214380680143039884680C438460FF
:101A30000192009304B010BD0FBCFFFF8FF1F9FFBE
:101A400084B00A460346039002A80170007800287B
:101A50000192009306D0FFE70398816E02221143A2
:101A6000816605E00398816E022291438166FFE75B
:101A700004B07047F0B588B013460C460546079091
:101A800006A8017005A90A70027892080526374653
:101A900057431F22BA40079F04908C200390385868
:101AA0009043039AB850087804990F78BF087E4392
:101AB000B040079EB7580743B75002950193009472
:101AC00008B0F0BD70B584B00A460346039002A882
:101AD000017003998C240D5903263605B5430D5129
:101AE0000078000503990D5905430D5101920093AB
:101AF00004B070BDF0B589B01C4615460E460746C9
:101B0000089007A8017006A90A70059305990F228D
:101B100011400591007804900498082803950296D6
:101B20000194009717D3FFE704980F210840049011
:101B30000498083804900498800081400898426F07
:101B40008A434267059804998900884008994A6F3A
:101B500002434A6710E0049880000F2181400898F2
:101B6000026F8A43026705980499890088400899A2
:101B70000A6F02430A67FFE707A8017801221346AC
:101B80008B400899CC689C43CC60017813468B400D
:101B90000899CC681C43CC6000788240100400286F
:101BA00004D5FFE7012000F023F80CE007A8007837
:101BB000012181404804002804D5FFE7012000F0FE
:101BC00017F8FFE7FFE709B0F0BD82B001460190CA
:101BD0000198002202600198426001988260019899
:101BE00002730198026101984261009102B070474E
:101BF00082B0014601AA107010780028009106D02A
:101C0000FFE7074801680C221143016005E0044822
:101C100001680C2291430160FFE702B07047C046A3
:101C200004240140F0B58FB01C4615460E46074609
:101C30000E900D910C920B930D98079006A8002121
:101C4000017009910594049503960297FFE709989E
:101C500007284AD8FFE700200A90FFE70A98FF28E4
:101C600038D8FFE70E980A99491C41430998401C4F
:101C7000019008460199FFF74DF8089008980D99D2
:101C8000884205D9FFE708980D99401A009004E0B2
:101C90000D980899401A0090FFE70098089007985F
:101CA0000899884209D9FFE7089807900A980C9983
:101CB000086009980B990860FFE70798002804D18D
:101CC000FFE706A80121017004E0FFE70A98401C25
:101CD0000A90C3E706A80078002801D0FFE704E0D7
:101CE000FFE70998401C0990B1E707980FB0F0BDD5
:101CF00080B501F0E9FA01F0C3FB80BD80B584B086
:101D000003A8029003F06AF90120C104019008467B
:101D1000019905F021FE01984103029A11800321E7
:101D200091702821D1700348114603F085F804B062
:101D300080BDC0460008004880B584B003A802906A
:101D400003F04CF90120810401900846019905F047
:101D500003FE01984102029A11804821D170DC48AB
:101D6000114603F069F804B080BDC04680B584B068
:101D700003A8029003F032F9012001050190084602
:101D8000019905F0E9FD042002990880032088707C
:101D90002820C870784803F04FF804B080BDC046D2
:101DA00080B584B00120410402900846029905F0F4
:101DB000D3FD03A8019003F011F9042001990880D4
:101DC000032088701820C8700920C006009003F016
:101DD00033F80820019908804820C870009803F063
:101DE0002BF804B080BD0000B0B596B010A800215B
:101DF00001700622427002460832119201220272DC
:101E000041720346103313930223037442741591F5
:101E100008AC21700B25657025460835099522729E
:101E200007256572254610350B952374617423468A
:101E300018330D93032323760C2363760F919304B9
:101E4000124D079028460691194605950493039272
:101E5000029400F079FE0E480190049900F074FE9F
:101E600005980799069A00F0B7FE01980299069A1C
:101E700000F0B2FE00F0F6FE05980399FFF74BFD67
:101E800001980399FFF747FD16B0B0BD002401404B
:101E90000028014080B582B001A830218170002166
:101EA00001800121C170042100900846009900F0D2
:101EB00005FF02B080BD000080B586B005A8049083
:101EC00003F08CF8032040040121039105F044FD48
:101ED00000200499C870039882020A800923DB0657
:101EE00018460292019302F0A7FF03980499088014
:101EF000019802F0A1FF802004990880019802F067
:101F00009BFF029804990880A34802F095FF4020A7
:101F100004990880019802F08FFF0220049908803C
:101F2000019802F089FF03984102049A11800198F8
:101F3000114602F081FF06B080BDC04680B584B076
:101F400003A8029003F04AF8012001050190084619
:101F5000019905F001FD8020029908802820C870B1
:101F60000548009002F068FF07210522009802F062
:101F7000EFFF04B080BDC046000C004880B584B0BF
:101F800003A8029003F02AF80120410401900846BA
:101F9000019905F0E1FC0198C102029A118000212B
:101FA000D170032191700921C806114602F044FF47
:101FB00004B080BD80B500F015F800F02FF8FFF7F1
:101FC0007BFFFFF7DBFF00F085F8FFF7B5FEFFF7BB
:101FD000E7FEFFF7B3FF00F059F8FFF78FFEFFF7BA
:101FE000C5FE80BD80B584B003A8029002F0F6FF64
:101FF0000120410401900846019905F0ADFC0198CB
:10200000C103029A1180032191701021D17009211E
:10201000C806114602F010FF04B080BD80B586B03E
:1020200005A8049002F0DAFF032040040121039187
:1020300005F092FC00200499C87020220A80092231
:10204000D20602901046019202F0F6FE102004998A
:1020500008800298C870019802F0EEFE0398C10251
:10206000049A11800299D1704B4B18461146009387
:1020700002F0E2FE03980103049A11800299D170E4
:102080000098114602F0D8FE06B080BD80B584B03D
:1020900003A8029002F0A2FF0120810401900846EB
:1020A000019905F059FC01984103029A118003211E
:1020B00091701821D170384908460091114602F0FC
:1020C000BBFE0D210622009802F042FF04B080BD45
:1020D0000004004880B588B007A8069002F07EFF93
:1020E0000120810405900846059905F035FC059806
:1020F0000102069A1180032191701823D370264B98
:10210000184604911146039302F096FE202006998A
:102110000880039802F090FE8020069908800398BA
:1021200002F08AFE402006990880039802F084FE9F
:10213000082006990880039A0290104602F07CFE5F
:10214000102006990880039802F076FE0398029901
:10215000049A02F0FDFE05210720039A0190104623
:10216000019A02F0F5FE06200399009008460199B5
:10217000009A02F0EDFE03980099019A02F0E8FE41
:1021800003980499009A02F0E3FE04210398009A50
:1021900002F0DEFE08B080BD0004004880B58EB0BD
:1021A00001460D902548012207900691114605929F
:1021B00005F092FD0920C0060490059905F03CFC4D
:1021C0000D98089008A8302181800021C1800181EC
:1021D000818108214181079A03901046039B029157
:1021E000194607F0DDFF0798059907F079FF0221EE
:1021F0000498059A02F0ACFE032004990190084669
:102200000199059A02F0A4FE0CA80421018001990D
:1022100081701822C270049A00901046009902F052
:102220000BFE029800990880019A8A704823CB70AF
:10223000049802F001FE0EB080BDC046004400408C
:102240007047000010B584B00A46034603AC207006
:1022500002A80170007800280192009308D0FFE7DF
:1022600003A800781C49425801231A43425007E052
:1022700003A800781849425801239A434250FFE7C7
:1022800004B010BD82B0014601AA10701078124A45
:1022900000238350009102B07047C04670B584B0EF
:1022A0000A46034603AC2070029102980168456813
:1022B000294385682943C668314329430569294371
:1022C00045692943806901432078034C01510193FA
:1022D000009204B070BDC046003C014070B585B0AE
:1022E0000A46034604AC207003A801700021029145
:1022F0000A490D680295029D0F26B5430295247880
:10230000007804430298204310242043029002984E
:1023100008600193009205B070BDC046183C0140B2
:1023200080B584B00A460346039002910298008863
:1023300000B20399098809B28842019200931DDB1B
:10234000FFE702988188491C818002988088039960
:102350004988884208DBFFE7039840880299888013
:10236000029801218171FFE702980221415E0088F5
:1023700000B205F0D3FA0299488012E00298008872
:1023800000B203990422895E884208DAFFE70298C6
:1023900000218180029881710298418000E0FFE76E
:1023A000FFE704B080BD000085B00A4603460490F4
:1023B00003910020029001920093FFE70298039995
:1023C00088420BD2FFE704980299890040580549DA
:1023D0000860FFE70298401C0290EFE701480068A0
:1023E00005B070470030024001480121016070478C
:1023F0000830024010B58AB001460990059106F0F8
:1024000013FB07910690079806991A4A53681268B9
:102410000024891A22465241521E98418908830796
:10242000194301237D29049203940290019301D35F
:1024300003980190019802998A08002A009001D01F
:1024400003980090009800280FD1FFE709484168E1
:1024500002687D239B000024D21861410260416024
:1024600000F07CF900F026F900E0FFE701200AB057
:1024700010BDC046580200206B4870478B488089C9
:102480007047C04680B58EB0B0482421415E0D91A2
:102490002621415E0C912821405E0B900020079080
:1024A000614807900D9800281EDAFFE7079800683A
:1024B000FD214901069100F01FFB07990A68101AD7
:1024C00008600D9807990A68101808600798406816
:1024D000069900F011FB07994A68101A48605448A1
:1024E0000188491C01801DE007984068FD214901D1
:1024F000059100F001FB07994A68101A48600D9891
:1025000007994A681018486007980068059900F014
:10251000F3FA07990A68101A086044480188491CB0
:102520000180FFE70C9800281EDAFFE70798006992
:10253000FD214901049100F0DFFA07990A69101A98
:1025400008610C9807990A69101808610798406992
:10255000049900F0D1FA07994A69101A486136487F
:102560000188491C01801DE007984069FD2149014F
:10257000039100F0C1FA07994A69101A48610C9852
:1025800007994A691018486107980069039900F093
:10259000B3FA07990A69101A086126480188491C8C
:1025A0000180FFE70B9800281EDAFFE70798006A12
:1025B000FD214901029100F09FFA07990A6A101A59
:1025C00008620B9807990A6A101808620798406A0F
:1025D000029900F091FA07994A6A101A486218485D
:1025E0000188491C01801DE00798406AFD214901CE
:1025F000019100F081FA07994A6A101A48620B9813
:1026000007994A6A101848620798006A019900F011
:1026100073FA07990A6A101A086208480188491C67
:102620000180FFE70EB080BD90010020D60700209A
:10263000D4070020DA070020D8070020DE0700209A
:10264000DC07002080B584B000200390029017487A
:10265000029002990190084600F0A2F901980168E1
:102660004943039141684943039A51180391816892
:102670004943039A511803910398032100F03CFA4F
:102680000390039802F0FEFC019988818889086113
:1026900010310748006800900846009900F0C0FF1C
:1026A00001988169818304B080BDC046600200202A
:1026B0008400002080B588B0D4480078002842D13A
:1026C000FFE7B6482421415ED04A916011460831A7
:1026D0002623C05ED06006A80290084602990192A7
:1026E00004F0ACFA069805900798049005984043CA
:1026F000039004984043039908180390039801F04D
:10270000A3FD0199C8610398C217120D8018001328
:102710008861C8690E4A4243D017000D1018000B9B
:1027200000B20862086A886448310A480090084686
:10273000009900F075FF01984169C1633C3006497A
:1027400000F06EFFFFE708B080BDC046A004002087
:10275000E2040000880000208C00002070B59AB0D0
:1027600017A80021017006F05FF919911890A74889
:102770000078012800D0BDE000F030F9874824211E
:10278000415EA24A5162114624315B4B16900846C5
:1027900019461593149200F043FF26201699085EFF
:1027A000149A106330321046159900F039FF1498CE
:1027B000816ACA17120C89180914504A91420ADB1F
:1027C000FFE79248806AC117090C401800144C4971
:1027D000884236DBFFE717A8012101701998189A83
:1027E0008A4BDC6D9B6D0025D21A2B465B415B1E2C
:1027F000A041444C66682468A2420A461391129391
:10280000119510900F960E9201D311980E900E987C
:1028100010990F9A9142139B0D900C9301D311982C
:102820000C900C9810990F9A91420D9B0B900A9363
:1028300001D00B980A900A98002801D1FFE7FFE722
:1028400000E0FFE77148406BC117090C4018001405
:102850002A4988420ADBFFE76C48406BC117090C24
:10286000401800142649884236DBFFE717A80121EB
:1028700001701998189A654BDC6D9B6D0025D21A72
:102880002B465B415B1EA0411E4C66682468A24239
:102890000A4609910893079506900596049201D37C
:1028A0000798049004980699059A9142099B039011
:1028B000029301D30798029002980699059A9142D3
:1028C000039B0190009301D001980090009800288C
:1028D00001D1FFE7FFE700E0FFE717A80078C00796
:1028E000002806D1FFE718981999484AD1659065E4
:1028F000FFE7FFE71AB070BD900000205B07000003
:10290000A6080000B0BF00087047000080B582B084
:1029100017484168FD225201019008461146009275
:10292000FEF7F8F90199486348690099FEF7F2F952
:1029300001994864486A0099FEF7ECF901994865E5
:10294000086840420099FEF7E5F9019908630869B3
:1029500040420099FEF7DEF901990864086A404296
:102960000099FEF7D7F90199086502B080BDC0460D
:102970009001002082B00146019008482422825E26
:10298000019B1A602622825E019B5A602822805E8B
:10299000019A9060009102B07047C046A0040020E8
:1029A00082B0014601900A4800680A4A1040019B23
:1029B0001860094800681040019A50600198026848
:1029C00052424368D21A8260009102B07047C046FA
:1029D00018240140FF0F0000182801400B48002177
:1029E000C1614161C163016401628164C16481614B
:1029F0008160C1600161704782B0014601AA107018
:102A00000198024A1070009102B07047F001002056
:102A10007047704770470000B0B58CB013460C4645
:102A200005460B900AA8018009920B99098809B202
:102A30002D4A4A4308920899008800B20790084638
:102A4000079906940593049500F056F84000089005
:102A500008980121C903884203DBFFE7234803905C
:102A600002E008980390FFE703980890089820492F
:102A7000884203DCFFE71F48029002E008980290BA
:102A8000FFE7029808900898099908800B9802219E
:102A9000405E15494143089108980AA9098809B27E
:102AA00000F02AF84000089008980121C9038842E4
:102AB00003DBFFE70D48019002E008980190FFE773
:102AC0000198089008980A49884203DCFFE7094802
:102AD000009002E008980090FFE70098089008989E
:102AE000099948800CB0B0BDD96E0000FF7F00008E
:102AF000FF7FFFFF0080FFFF85B00A46034603907B
:102B00000291029800280192009303D1FFE7002070
:102B1000049010E00398002803D1FFE70020049000
:102B200009E00398054908600298054908600548CE
:102B300000680490FFE7049805B070470000034068
:102B4000040003400800034080B58EB00A460346E7
:102B50000D900C9106A805920493FFF736F80D9896
:102B60005549884208D1FFE70120410203900846F9
:102B7000039904F025FF0EE00D981649884208D10C
:102B8000FFE70120810202900846029904F018FF35
:102B900000E01DE0FFE70D98FEF789FE002006909B
:102BA000079001214A0208920C9A0A920B900D9A02
:102BB00006AB0190104600911946FEF717FF0D98DD
:102BC0000099FEF7C2FE0D980199FEF7A4FEFFE7FB
:102BD0000EB080BD00280140B0B588B013460C4649
:102BE000054607900691059204A8002101700798F8
:102BF000002803930294019504D0FFE7069800286B
:102C000001D1FFE72BE0FFE707980699059B49787C
:102C10000022FEF76FFF04A8007806990978884221
:102C200006DAFFE7079806990978FEF710FEFFE736
:102C3000079806994A780978FEF7B0FD069800785B
:102C400004A90870069840680690FFE706980028D7
:102C5000DAD1FFE707980121FEF7DFFDFFE708B0B3
:102C6000B0BD000080B584B013480E2100220F23B0
:102C70000390029101920093FEF73CFF03980099A4
:102C8000019A009BFEF736FF20210398FEF7F5FD21
:102C900001210398FEF716FF03980199029AFEF7A7
:102CA000E9FE04210398009AFEF7E4FE022103984E
:102CB000FEF7C6FE04B080BD00240140B0B58EB062
:102CC0000A4603460DAC20700C910120C10304900C
:102CD0000846049D0391294602930194009204F052
:102CE0006FFE01980078FFF7CDFA0C9800880690E7
:102CF0000C98807805900498C10207910399089177
:102D00004204099204220A920322D2040B92019AED
:102D1000107805A9FFF7C2FA0C988078302806D100
:102D2000FFE70C98C1782020FFF7D8FAFFE70DA83D
:102D300000780121FFF786FA0EB0B0BD80B582B0F1
:102D40000120810601900846019904F005FE02F079
:102D50008FF902B080BD000080B582B0012004F080
:102D6000A9FFFFE7612004F0E1FE002801D1FFE7A1
:102D7000F8E704F068FD0A48019003F011F8032019
:102D800002F0F0FF05F01EF9019803F009F8FF20AA
:102D900002F0F8FF02F0E0FF02F0C2FF02B080BDD7
:102DA0005555000080B582B00120C103019008464E
:102DB000019904F005FE0198019904F0CFFC0198F7
:102DC0000004019904F0CAFC02B080BDB0B598B00F
:102DD00013460C460546179016A8018015A80280D8
:102DE00017984249884209930894079508D1FFE74C
:102DF0000120C10206900846069904F0E1FD0EE0AC
:102E000017983B49884208D1FFE70120410305900C
:102E10000846059904F0D4FD00E064E0FFE716A839
:102E20000088139012A80021018001814022827045
:102E300001228272179B04901846049B0391194645
:102E4000029206F0ADFE0298C1020EAA1180810224
:102E5000518003999180159BD38003031381518185
:102E600091811798114606F06DFA0AA87021017039
:102E70000299417004228270039A0B92027242728C
:102E800042818281179B01901846019906F01CFC33
:102E90001798019906F07EFC1798019906F0DEFC60
:102EA0000A200B900398019948708870179806F0D3
:102EB00031FD17980821009106F058FC17980099E9
:102EC00006F0B6FC1798009906F010FD17980299C5
:102ED00006F01EFA1798029906F086FA17980399D9
:102EE00006F09CFAFFE718B0B0BDC046002C0140C8
:102EF0000008014080B582B00120410601900846DB
:102F0000019904F029FD02B080BD000010B590B019
:102F10000A4603460FAC20800EA801800BA906903C
:102F2000084605910493039206F0A0FE07A806F058
:102F300031FD0120410402900846029904F040FD51
:102F40006A48019006F086FA069801880C910F995C
:102F5000059A11800021118191709172019811469A
:102F600006F01EFE0198029906F0D2F90198029926
:102F700006F03AFA10B010BD10B592B00A460346FA
:102F800011AC208010A801800DA908900846079177
:102F90000693059206F06AFE09A8049006F0FAFC72
:102FA0000120810403900846039904F009FD6D484F
:102FB000029006F04FFA089801880E911199079A2D
:102FC0001180002111819170917202980191114636
:102FD00006F0E6FD60200499087003984870019A95
:102FE0008A70089B1C8864080A940A724A810298B5
:102FF00006F06AFB0821029806F0B8FB02980399D4
:1030000006F086F90298019906F0EEF90298019906
:1030100006F004FA12B010BD10B592B00A4603468D
:1030200011AC208010A801800DA9099008460891D4
:103030000793069206F01AFE0AA8102101700021DB
:103040004170012282700592049104F049FB2348EB
:10305000039006F0FFF902200290059904F096FC17
:10306000099801880E911199089A1180049911818B
:10307000917091720398114606F092FD0BA8019091
:1030800006F0F2FA0498019908704870059A8A705F
:10309000C8708880039806F094FC5021039806F0CD
:1030A000FCFC0421039806F00BFD03980299059A95
:1030B00006F0ECFA03980599059A06F0E7FA0398EA
:1030C000029906F082F90398059906F07EF90398B3
:1030D000059906F089F912B010BDC0460004004001
:1030E00080B5024806F020FA80BDC0460044014089
:1030F00080B517200149FFF78FFF80BD3F9C00007E
:1031000080B582B05F200749FFF736FF15480121DF
:103110000190009106F082F90198009906F064F997
:1031200002B080BDE703000080B582B0014601AA6D
:10313000108010880028009105D1FFE70948002180
:1031400006F0D1FC09E001A801880548FDF7E2FD81
:1031500081B2044806F0C7FCFFE702B080BDC0465C
:1031600040420F000048014080B588B00A4603463F
:10317000069005A80180018823480392029300F07D
:10318000B3FB04900498002804D1FFE70020C0435B
:1031900007901EE004981C49884206D1FFE705A865
:1031A00000880D49081A049005E005A800880499D4
:1031B000081A0490FFE7FFE70698049905AA138808
:1031C00001921A46FDF7D4FD01990A8807920090F2
:1031D000FFE7079808B080BD00000208B0B586B0D0
:1031E0000A460346059004A8018005990488064D07
:1031F00003900846294602922246019300F014FBF0
:103200000398008806B0B0BD00F8010880B584B00E
:10321000214800780028039004D0FFE70398012894
:1032200017D028E01C48011D144A116011680423BE
:103230000290084619460192FFF796FF01990A6825
:103240001268029B5A605A689A6001221A700090B4
:1032500012E011484168806881420BD0FFE70E48B8
:10326000011D42688260054801600068042105F084
:10327000E3F9FFE700E0FFE704B080BD8002002033
:1032800082B0014601900198034A5368034353609A
:10329000009102B07047C04684020020704770471A
:1032A00080B50120400200F033F8012809D1FFE782
:1032B00004480168491C01600120400200F01EF82A
:1032C000FFE780BDE807002080B584B001200190B1
:1032D000019904F075FB0921019800F0A7F8019805
:1032E0004102029102A900220A710C224A718871DE
:1032F000084600F021F804B080BD000082B001460D
:10330000019001980B4A1060009102B07047C046CE
:1033100084B00146039007480068039A10400122D8
:10332000002802910190009201D10198009000982C
:1033300004B070471404014082B001460190019826
:1033400080790028009152D0FFE701980068344945
:103350000A6882430A600198006830490A6882431B
:103360000A6001980079002807D1FFE701980068FA
:103370002B490A6802430A6006E001980068274961
:103380000A6802430A60FFE70198006825490A6855
:1033900082430A600198006823490A6882430A60F0
:1033A0000198407910280DD1FFE7019800681D4968
:1033B0000A6802430A60019800681B490A680243D0
:1033C0000A6013E001984079082807D1FFE70198C7
:1033D000006814490A6802430A6006E00198006820
:1033E00011490A6802430A60FFE7FFE713E001980A
:1033F0000079002807D1FFE70198006808490A68AA
:1034000082430A6006E00198006804490A68824322
:103410000A60FFE7FFE702B07047C04604040140BE
:1034200000040140080401400C040140F0B586B0DE
:103430000A46034605AC207004A8017001780325F4
:103440000E462E40B6000F27B740FC2631400390B1
:103450000A4802900858B843029FC851207803993F
:103460000C7821462940890088403440E1590143C5
:10347000E1510193009206B0F0BDC0460800014042
:1034800080B582B001A807210170012141708170CF
:1034900004F026F902B080BD80B504480A2101601D
:1034A00003486421016000F0D5FA80BD20010020AE
:1034B0001C01002010B58CB00BA8002101800AAAC5
:1034C000118009AB198007900693059207F01AFA4C
:1034D00008A908802D486C21415A2D4A11806E217F
:1034E000415A51807021415A918011884900538876
:1034F00094881B19C91A032304900846194603939C
:103500000292FFF7F9FA0799088002984288520060
:10351000038884881B19D01A0399FFF7EDFA0599DF
:103520000880029882885200038844881B19D01AA8
:103530000399FFF7E1FA0699088007980288522359
:10354000049CE15E10B2019303F0E3FC02998860F1
:1035500005980288049B019C195F10B203F0D9FC06
:103560000299C86006980288049B019C195F10B2FA
:1035700003F0CFFC0299086188680E4A1060C868A1
:103580005060086990600CB010BDC046A0040020D7
:10359000A002002082B00146019006480268019B0B
:1035A0001A604268019B5A608068019A906000919D
:1035B00002B070479402002080B505F052F800F088
:1035C000FDFE00F06BFD80BD80B514480178491CFC
:1035D00001700078032804DBFFE710480021017028
:1035E00000E0FFE7FFF766FF0C480078002803D1F2
:1035F000FFE705F0FFF9FFE708480078012803D14D
:10360000FFE700F0A3FFFFE704480078022803D19A
:10361000FFE700F047FDFFE780BDC0460403002040
:1036200010B585B00A4603460490039104980168DA
:103630004068C417240C00190014081A029002985C
:1036400003990968414304984468611841600498EB
:103650004168CC17240C0919091481600192009368
:1036600005B010BD84B00A4603460390029102984B
:10367000000403998860029803998860019200937E
:1036800004B0704780B582B001460190ED480268F1
:1036900002231A430260019A054B1A600268402314
:1036A0001A4302600348009100F086F902B080BD21
:1036B00014200240FF0F000084B0E348006801219D
:1036C000084203D0FFE70120039019E0DE480068BC
:1036D0000421084203D0FFE7022002900DE0DA48FF
:1036E000006810210322042308420193009201D1B3
:1036F0000198009000980290FFE702980390FFE77E
:103700000398C0B204B0704770470000CD4801680C
:10371000802211430160704710B584B00A46034609
:10372000039002A80180C748016801242143016079
:103730000298039908800F200192009300F03CF951
:1037400004B010BD80B584B001460390029100F032
:1037500027F90398FFF796FF0190FFF7D7FF04B012
:1037600080BD000087B00A460346069005A8018088
:1037700002A80121017004A8002101800192009398
:10378000FFE704A8008805A909884908884216DAD5
:10379000FFE7069804A909884900405A03A9088050
:1037A0000888AF49884204D0FFE702A800210170D1
:1037B00005E0FFE70498401C04A90880E1E702A89F
:1037C000007807B07047C046B0B588B013460C46C5
:1037D00005460790069105A802800393029401957F
:1037E00000F0DEF804A800210180FFE704A80088AB
:1037F00005A909884908884212DAFFE7069807995F
:103800000988FFF789FF0699891C06910799891C89
:1038100007910090FFE70498401C04A90880E5E7A1
:10382000FFF774FF08B0B0BDB0B588B013460C46C2
:1038300005460790069105A8028006990088039026
:103840000846039902930194009500F04DF8049006
:103850000498002810D1FFE70698FFF773FF069839
:10386000012189024018FFF76DFF0798069905AA04
:103870001288FFF7A9FF35E0049806990122920209
:10388000891805AA1288891A88420DD1FFE706987F
:10389000012189024018FFF755FF0798049905AAEE
:1038A0001288FFF791FF1CE0049806990122D202CA
:1038B000891805AA1288891A88420AD1FFE7069852
:1038C000FFF740FF0798049905AA1288FFF77CFFCD
:1038D00006E00798049905AA1288FFF775FFFFE72D
:1038E000FFE7FFE708B0B0BD80B58AB00A460346DF
:1038F000099008A801800998069009A80078C007D7
:1039000000280592049302D0FFE7FFE7FEE708A82E
:1039100001880120C002FDF7FDF90029039002D0C3
:10392000FFE7FFE7FEE707A800210180FFE707A800
:10393000008808A909880122D20202901046FDF7EA
:10394000E9F90299814216DAFFE7099807A909887F
:1039500008AA13884B43C018069006981188FFF7F1
:1039600001FF012801D1FFE705E0FFE70798401CB0
:1039700007A90880DBE707A8008808A909880122B1
:10398000D20201901046FDF7C5F90199814203D199
:10399000FFE700200690FFE706980AB080BD000010
:1039A0000248034901600349016070470420024056
:1039B00023016745AB89EFCD80B588B001460790FC
:1039C0000491FFE7FFF778FE05A908700798401EED
:1039D0000790FF200690FFE70698002805D0FFE734
:1039E000FFE70698401E0690F6E7FFE705A8007877
:1039F0000021012803910BD1FFE70798012100283E
:103A00000290019101D10298019001980390FFE783
:103A10000398C0070028D5D1FFE70A4800210160BC
:103A20000948342101600798002803D1FFE70520E9
:103A3000009003E005A800780090FFE70098C0B26E
:103A400008B080BD102002400C20024080B5FFF776
:103A500047FB80BD80B500200149FFF757FA80BDC4
:103A6000FFFF0000B0B58EB001460D900D984022CA
:103A7000825E099010460891FCF774FC0AA9088040
:103A8000000C488048884821099A50520A984623D9
:103A9000D0520D98044630340546463534300790F0
:103AA000204606912946079A059303F033F90D98AD
:103AB000B421405E0D995222895E049203F0DDF933
:103AC0000BA90880088800B2384903F0D6F90D998F
:103AD0004E2288520D98805A0D992323DB00C8523C
:103AE0000D98C05E039203F031FA0D998D225200B9
:103AF00088520D98018F828E891A81870D984321F3
:103B0000890041183C22805EFCF764FC0D99088313
:103B10000D980399405E0D9A525E42430D9818230A
:103B2000C05E4043101A0C900C9801F0ABFA0D994E
:103B30004B22920088520D98805E03F007FA0D998F
:103B40009722520088520D98418FC28E891AC187E0
:103B50000D980921490141183E22805EFCF73AFC8C
:103B60000D9948830D980699425A4C23C252059AE2
:103B7000835A4A2403530D980346183304464A34A3
:103B80001C30029018462146029A03F08FF80D98D7
:103B900001461C31049A805E0D9B2033019008463B
:103BA00001991A46FEF738FF0EB0B0BD5655000019
:103BB00080B58EB006A8012101707B4841680C9148
:103BC0007A49496D8068814203DAFFE70120099054
:103BD00003E07648406D0990FFE77448806D7249B4
:103BE0008968884203DAFFE70120089003E06F4804
:103BF000806D0890FFE76D48C06D6B498968884209
:103C000003DAFFE70120079003E06848C06D0790E2
:103C1000FFE7099808994018079940180321FDF714
:103C20008FF861498968884205DDFFE75F486F21A9
:103C30000122425404E05D486F2100224254FFE714
:103C400009980B9008980A900B980A9988420FDD02
:103C5000FFE70B980A99401A0D900D986421414393
:103C60000B98059008460599FDF76AF80D900EE04F
:103C70000A980B99401A0D900D98642141430A98B7
:103C8000049008460499FDF75BF80D90FFE70D9846
:103C90000C99884204DDFFE706A800210170FFE7C8
:103CA0000D98FD49496F884204DDFFE70D98FA49F8
:103CB0004867FFE708980B9007980A900B980A99B5
:103CC00088420FDDFFE70B980A99401A0D900D9876
:103CD000642141430B98039008460399FDF730F89F
:103CE0000D900EE00A980B99401A0D900D986421E2
:103CF00041430A98029008460299FDF721F80D9079
:103D0000FFE70D980C99884204DDFFE706A8002123
:103D10000170FFE70D98E049496F884204DDFFE735
:103D20000D98DD494867FFE707980B9009980A90BE
:103D30000B980A9988420FDDFFE70B980A99401A01
:103D40000D900D98642141430B980190084601990C
:103D5000FCF7F6FF0D900EE00A980B99401A0D90B3
:103D60000D98642141430A98009008460099FCF799
:103D7000E7FF0D90FFE70D980C99884204DDFFE7FF
:103D800006A800210170FFE70D98C349496F8842DA
:103D900004DDFFE70D98C0494867FFE706A80078F3
:103DA000012108400EB080BD9400002010030020C7
:103DB00080B588B007A80021017003A8017002A88F
:103DC000017001A80170FEF757FB514908600868AF
:103DD000406B05900868006B0490059804994018A2
:103DE0004008069005984108800808180590049836
:103DF000410880080818049006980599884205D360
:103E0000FFE706980499884204D2FFE703A801213E
:103E10000170FFE73E480168496C05910068006C3D
:103E200004900598049940184008069005984108A8
:103E30008008081805900498410880080818049024
:103E400006980599884205D3FFE7069804998842A9
:103E500004D2FFE702A801210170FFE72C480168A6
:103E6000496D05910068006D04900598049940180B
:103E700040080690059841088008081805900498A5
:103E8000410880080818049006980599884205D3CF
:103E9000FFE706980499884204D2FFE701A80121B0
:103EA0000170FFE703A80078C00700280AD0FFE7E9
:103EB00002A80078C007002804D0FFE707A8012166
:103EC0000170FFE702A80078C00700280AD0FFE7CA
:103ED00001A80078C007002804D0FFE707A8012147
:103EE0000170FFE701A80078C00700280AD0FFE7AB
:103EF00003A80078C007002804D0FFE707A8012125
:103F00000170FFE707A800780121084008B080BDD4
:103F10000803002080B58CB007A8012101705D481E
:103F200000680A90C548016E0991406E0890099892
:103F3000089988420FDDFFE709980899401A0B900D
:103F40000B98642141430998069008460699FCF7AE
:103F5000F7FE0B900EE008980999401A0B900B9809
:103F6000642141430898059008460599FCF7E8FE4E
:103F70000B90FFE70B980A99884204DDFFE707A83A
:103F800000210170FFE70B98AC49096F884204DDFE
:103F9000FFE70B98A9490867FFE7A848416E099118
:103FA000806E08900998089988420FDDFFE709980C
:103FB0000899401A0B900B9864214143099804908A
:103FC00008460499FCF7BCFE0B900EE0089809998E
:103FD000401A0B900B9864214143089803900846BF
:103FE0000399FCF7ADFE0B90FFE70B980A99884206
:103FF00004DDFFE707A800210170FFE70B988F4958
:10400000096F884204DDFFE70B988C490867FFE7DA
:104010008A48816E0991006E089009980899884233
:104020000FDDFFE709980899401A0B900B9864215F
:1040300041430998029008460299FCF781FE0B90D3
:104040000EE008980999401A0B900B98642141439F
:104050000898019008460199FCF772FE0B90FFE763
:104060000B980A99884204DDFFE707A80021017038
:10407000FFE70B987149096F884204DDFFE70B9851
:104080006E490867FFE707A80078012108400CB0D7
:1040900080BDC046940000201003002080B503F0CE
:1040A00061FE80BD80B56648007803280AD1FFE72D
:1040B00064480078062805D1FFE700F005F8FEF710
:1040C000E1F9FFE780BDC04680B58CB000200890C4
:1040D0005A490A463C320892089A069010460591C1
:1040E000FEF748FC06980790059948310791079814
:1040F000FFF750FA52480078032800D09BE051485F
:104100000078062800D096E0089800680B900B987D
:10411000002804DAFFE70B9840420B90FFE708986D
:1041200040680A900A98002804DAFFE70A9840429B
:104130000A90FFE70898806809900998002804DA37
:10414000FFE7099840420990FFE73C4801680122D7
:1041500092030490084611460392FEF7CDFC0499A1
:104160000A68101A08600B980A68101808604868F6
:104170000399FEF7C1FC04994A68101A48600A982E
:104180004A681018486088680399FEF7B5FC0499DE
:104190008A68101A886009988A68101888600798D9
:1041A00000680B900B98002804DAFFE70B98404258
:1041B0000B90FFE7079840680A900A98002804DAF5
:1041C000FFE70A9840420A90FFE707988068099045
:1041D0000998002804DAFFE7099840420990FFE7B0
:1041E0001648C168012292030290084611460192C6
:1041F000FEF782FC0299CA68101AC8600B98CA6858
:104200001018C86008690199FEF776FC02990A69DE
:10421000101A08610A980A6910180861486901991A
:10422000FEF76AFC02994A69101A486109984A69BE
:1042300010184861FFE70CB080BDC0461003002095
:104240005A010020C407002085B0014604900020D8
:104250000390029001900091FFE701980F2825DC60
:10426000FFE7029840000290039880000499890FAC
:10427000084303900498800004900298401C029028
:1042800002980399884208D8FFE702980399081A10
:1042900003900298401C029003E00298401E029096
:1042A000FFE7FFE70198401C0190D6E7029840081D
:1042B00005B070478AB00A460346099008910998EC
:1042C00000680028019200931EDAFFE70998406811
:1042D00000280CDAFFE709984068404205900998E9
:1042E000006806900320800302A908800BE009986B
:1042F00040680590099800684042069001208003BC
:1043000002A90880FFE708E0099841680691006863
:10431000059002A800210180FFE708980021818014
:104320000791FFE707980D2837DCFFE7069800287C
:1043300015DAFFE705980699079A1141401A03908C
:1043400006980599079A1141401804900798400073
:104350001949085A08998A88101A888014E0059823
:104360000699079A11414018039006980599079AF3
:104370001141401A0490079840000F49085A0899C3
:104380008A8810188880FFE70498069003980590A3
:10439000FFE70798401C0790C4E70598054941438B
:1043A000081408990860029808998A88101888806B
:1043B0000AB07047749B0000B8BF000880B500F0D9
:1043C00001F880BD10B58CB083480078032800D078
:1043D000AFE082480078062800D0AAE004F024FB71
:1043E000D34AD1629062D06A916A536B126B0024F7
:1043F000891A22465241521E9841012364290B908A
:104400000A920994089301D30998089008980B9987
:104410000029079001D0099807900798002800D03C
:1044200086E0C348816AC26A426301639B495222A3
:104430008A5AD2000A230690104605911946FCF7C5
:1044400069FC069948843C483C4A82805822059B76
:104450009A5E04901046FCF7F5FE0022384B03925A
:10446000FCF7C6FD374B039AFCF72AFEFCF712FF58
:104470005421069A505292200599085E049B9C880C
:10448000A0420FDDFFE7AA485421415E2A4A128864
:104490004A437D21C90002901046FCF751FC029965
:1044A00008840EE0A2485421415E234A52884A43C0
:1044B0007D21C90001901046FCF742FC0199088457
:1044C000FFE79B482021415E2222805E814204DD7D
:1044D000FFE79748418C0184FFE79548C169202296
:1044E000805E814205DAFFE79148018F491C018710
:1044F0000BE08F483821405E012805DBFFE78C4840
:10450000018F491E0187FFE7FFE789483821405E98
:104510000949C98888420ADDFFE70B480188402223
:1045200011430180008800B2FEF7AAFEFFE7FFE713
:10453000FFE70CB010BDC046A8000020AE07000089
:104540000088B3400000E0403804002080B500F04F
:1045500001F880BD80B584B0002003901E4800782B
:10456000032836D1FFE71D480078062831D1FFE740
:1045700000F038F800F094F86D480169039118498B
:104580000C22825E098809B20290104602F09BFC60
:104590000399081A03900298806901218902019108
:1045A000FEF7AAFA02998A69101A886103988A6943
:1045B0001018886188690199FEF79EFA0299C8610E
:1045C000C869002804DAFFE759480021C161FFE704
:1045D000FFE704B080BDC0465A010020C407002098
:1045E000B000002080B584B00020039050483C30DB
:1045F00003900398FEF7BEF903980068002805DAD7
:10460000FFE70398016849420160FFE703984068AB
:10461000002805DAFFE70398416849424160FFE757
:1046200003988068002805DAFFE70398816849420B
:104630008160FFE73E48016801229202029008462D
:1046400011460192FEF758FA02990A68101A08609A
:10465000039802684368D218806810180A68101816
:10466000086008680199FEF747FA0299C8608868EF
:104670000199FEF741FA02998A68101A8860074882
:104680005222805A8A681018886088680199FEF75B
:1046900033FA0299486104B080BDC046A0040020EE
:1046A00080B584B0002003902148483003900398DF
:1046B000FEF770FF03980068002805DAFFE703980B
:1046C000016849420160FFE703984068002805DA65
:1046D000FFE70398416849424160FFE7039880681B
:1046E000002805DAFFE70398816849428160FFE707
:1046F0000F48416801229202029008461146019239
:10470000FEF7FAF902994A68101A4860039802689D
:104710004368D218806810184A68101848604868C2
:104720000199FEF7E9F90299086104B080BDC0461D
:104730009003002080B586B00020049001210391F1
:1047400002A90870FFE70498012827D8FFE71D4851
:1047500000680399084201D0FFE70CE00498C0000C
:1047600019490A1808585168019008460199884764
:1047700002A90870FFE702A80078C007002806D049
:10478000FFE703980F490A6802430A60FFE70398AE
:10479000400003900498401C0490D4E70948006846
:1047A00003210840032804D1FFE705A80121017077
:1047B00003E005A800210170FFE705A8007806B016
:1047C00080BDC046E8030020F0BF000880B58AB075
:1047D00009A800210170204800780028059007D022
:1047E000FFE70598012831D1FFE700F037F82EE008
:1047F00004F01AF907910690069807994A07C0082D
:104800001043012200237D2804930391029201D3D7
:104810000498029002980399CA08002A019001D0D6
:10482000049801900198002805D1FFE7FFF782FF67
:1048300009A90870FFE709A80078C007002804D07C
:10484000FFE7054801210170FFE700E0FFE70248AC
:1048500000780AB080BDC046F003002080B586B065
:1048600000200590012103910290FFE7059802289E
:104870001DD8FFE70598C00010490A18085851686C
:10488000019008460199884704A908700878C00774
:10489000002805D0FFE70398029901430291FFE742
:1048A0000598401C0590039840000390DEE70298AD
:1048B0000149086006B080BDEC030020D8BF0008A5
:1048C000A448808B164988420EDCFFE7A148818B03
:1048D000491C818313494A8903699A1802618988AE
:1048E00042695118416115E09A48808B0121890283
:1048F00088420ED1FFE79748002181830269920A1E
:1049000002834269920A42830161416101218177F8
:10491000FFE7FFE78F48807F012108407047C046CE
:10492000FF0300009007002010B586B0002005901E
:1049300004A908708748418B418040883A4909881A
:10494000884201DBFFE76CE0824840883649C42298
:10495000895A884201DAFFE763E004A80021017068
:10496000FFE704A80078312859DCFFE77948408840
:1049700004A9097889002C4A515A884201DAFFE7D4
:1049800047E004A801788900274A51184B88012480
:10499000E443095B591A6F4B998000788000111825
:1049A0000324E443095B105A081AD880D8880028E9
:1049B00009DCFFE704A8007880001B49081840883C
:1049C000644948812BE06348418804AA13789B001E
:1049D000154CE35AC91AC90105910599C38803907A
:1049E0000846194602920194FEF786F8059005984C
:1049F00003998A884243D011059002980278920068
:104A0000019B9A1852888A818A89059C12194A81C9
:104A100005E0FFE70498401C04A90870A1E7FFE740
:104A2000FFE706B010BDC04600C0000880B582B0E8
:104A3000002001904748018B4184418C0A4A4A4337
:104A4000018C0A4B4B43D11A01910199426A0090A3
:104A500008461146FEF750F800998862886A1930B6
:104A6000886202B080BDC04688130000E40C0000DC
:104A700038484089652806DBFFE736482C21425C30
:104A8000521C425404E033482C2100224254FFE7D8
:104A900030482C21405C152801DBFFE7FFE72D485B
:104AA000806A652806DBFFE72A482D21425C521CFC
:104AB000425404E027482D2100224254FFE72548B4
:104AC000806A152801DBFFE7FFE77047044800888C
:104AD000044908401F490884034848627047C0469B
:104AE000F6F7FF1FFF0F00002444000080B582B0DE
:104AF000184800780028019008D0FFE701980128A5
:104B00000AD0FFE70198022818D01DE0FFF7DEFF6A
:104B10001048012101701BE0FFF7D2FE00280CD0E5
:104B2000FFE70C48002181770090FFF77FFFFFF738
:104B3000FBFE022000990870FFE709E0FFF798FFED
:104B400004480121017003E0024800210170FFE7E1
:104B500002B080BDF403002080B58AB00146099000
:104B600009981B4A10601B48002303601A48036021
:104B70001A480891079206F08FFC07990968184AAD
:104B80000690104606F088FC07990A68531C002B13
:104B90000590049212D0FFE70498022809D0FFE79D
:104BA000049803280FD1FFE7104806F075FC039026
:104BB00009E00D4806F070FC029004E0094806F098
:104BC0006BFC0190FFE7FFE7FFE701F0C5F8FCE7AA
:104BD00090020020640000203C000020A0C40008D7
:104BE0000CC40008A6C3000820C400087FC4000845
:104BF00082B03748008800285DD0FFE70020019090
:104C0000FFE701980E2818DCFFE73148008800B262
:104C1000019901228A40104203D0FFE701980090D9
:104C200003E02F4800880090FFE700982C49088097
:104C3000FFE70198401C0190E3E727480188491CE1
:104C4000018000887D218900884205D1FFE701208D
:104C5000C003244908602DE01F4800887D21C90059
:104C6000884218D1FFE71B480188491C01800121B7
:104C7000C9031A4A1160008819490988884205D178
:104C8000FFE715487D210901018003E0124800215A
:104C90000180FFE70DE0104800887D21490188422E
:104CA00006D1FFE70B48002101800B480180FFE798
:104CB000FFE7FFE709E0074800210180064801807F
:104CC0000120C00305490860FFE702B07047C046F5
:104CD000380400202A0400202C0400201000004882
:104CE000280400201400004880B588B0474848498F
:104CF000016048488006002806D0FFE7454840305C
:104D00003F218843079002E042480790FFE7079859
:104D1000414908603F488006002806D0FFE73D482B
:104D200040303F218843069002E03A480690FFE772
:104D300006983749401A39490860364880060028E5
:104D400006D0FFE7334840303F218843059002E01A
:104D500030480590FFE705982D49401A80083049F2
:104D600008602C488006002806D0FFE7294840301C
:104D70003F218843049002E026480490FFE704980E
:104D80002349401A800927490860224880060028E4
:104D900006D0FFE71F4840303F218843039002E0E0
:104DA0001C480390FFE703981949401A80081949E5
:104DB00089060029029006D0FFE7164840303F21BF
:104DC0008843019002E013480190FFE701981049E1
:104DD000401A81090298FBF79DFF134908600D48AE
:104DE0008006002806D0FFE70A4840303F2188436C
:104DF000009002E007480090FFE700980B49086028
:104E00000B480C49016008B080BDC04684010020F9
:104E10000000000870C80008780100207C01002014
:104E20008001002088010020700100207401002012
:104E300030040020F152000889B00A460346089069
:104E400007910798C0780F21084002900798C07812
:104E5000C00600280192009306D5FFE707988078E6
:104E6000029901430291FFE70898039005A80021E9
:104E70000170FFE705A80078072820DCFFE7059808
:104E8000800006A908700798008805A90978012202
:104E90008A4010420DD0FFE70398006806A9097800
:104EA0000F228A409043029A8A4010430399086077
:104EB000FFE7FFE70598401C05A90870DAE70898A6
:104EC000001D039007984078049005A80021017008
:104ED000FFE705A8007807281FDCFFE7059880009A
:104EE00006A90870049805A9097801228A40104291
:104EF0000DD0FFE70398006806A909780F228A40C1
:104F00009043029A8A40104303990860FFE7FFE745
:104F10000598401C05A90870DBE70798C078282889
:104F200007D1FFE70798008808994A6902434A6158
:104F30000CE00798C078482807D1FFE70798008859
:104F400008990A6902430A61FFE7FFE709B0704761
:104F5000B0B589B013460C460546089007A8017005
:104F600006A90A70017807221140890005AA11706C
:104F70000078072803940293019504DCFFE7089862
:104F80002030009003E0089824300090FFE700985C
:104F900004900498016805AA12780F23934099435E
:104FA00006AB1B7893401943016009B0B0BD86B0D1
:104FB0000A460346059004A801800599896800887F
:104FC000014001200029039102930192009001D138
:104FD00003980090009806B07047000082B0014628
:104FE00001900198054A028001980122827001987F
:104FF0000422C270009102B07047C046FFFF00005B
:1050000010B584B00146039015480068154A104059
:10501000C00001AB1880144800681040C00002AB0B
:1050200018800198039B5C8D201A40009884029898
:10503000039B9C8D201A4000D8840398838C5B428C
:10504000C48C1B1B0385094800681040C000039AEC
:105050005023D052009105F061FC04B010BDC04651
:1050600018240140FF0F0000182801401C240140B3
:105070000248016801229143016070471400034017
:105080007047000083B0014601900198002800910C
:1050900004D1FFE702A80021018007E0019806493A
:1050A00008600648006802A90880FFE702A8008897
:1050B00000B203B07047C04600040340040403403C
:1050C0007047000080B582B0AC48016813310160C0
:1050D000FDF78AF9002001900199FDF765F906496D
:1050E00008600868C04305490860A748016813398B
:1050F000016002B080BDC046500000207800002052
:1051000080B582B001A8012101709C480168891C0A
:105110000160FBF7A3FA012804D0FFE701A80021F2
:10512000017004E098480168891E0160FFE701A84A
:10513000007802B080BDC04680B586B05348007884
:10514000002833D1FFE78D4801683F31016058489E
:1051500000688047514908600868042805901BD8FA
:105160000598C0467844007940008744021415141D
:105170000B00854801683F39016044480178491CAB
:10518000017012E0804801683F3901603F480178B2
:10519000491C017009E0FFE7464806F07DF93F2110
:1051A00004900846FFF7D8FCFFE76DE03748007829
:1051B000012868D1FFE771480068734909684840D1
:1051C000401C002854D1FFE7314800683149096884
:1051D0004840401C00284BD1FFE7304800680428B5
:1051E00023D1FFE7654800682E490968884211D13C
:1051F000FFE76248006826490968401AA72149006C
:10520000884207D1FFE75D48002101605E48C9433D
:10521000016009E0244806F03FF9A7214900039006
:105220000846FFF799FCFFE714E054480068184966
:105230000968401AFF21483188420AD0FFE7184820
:1052400006F02AF9FF21483102900846FFF784FC56
:10525000FFE7FFE7494800680D4908604A480068D1
:105260000C4908600948002101701048017009E0EC
:10527000094806F011F9FF21483101900846FFF76F
:105280006BFCFFE7FFE7FFE706B080BDCD0700201E
:1052900048000020700000207CC50008C8070020DE
:1052A00047C5000824040020F6C40008CC070020ED
:1052B0003404002003C6000880B582B001A8012193
:1052C00001702E480168891C0160FBF793FA0128E0
:1052D00004D0FFE701A80021017004E02A4801681A
:1052E000891E0160FFE701A8007802B080BDC046BA
:1052F00080B584B003A801210170F74A10680B3013
:105300001060402002F028FBFDF76EF800200190AD
:10531000FFE701981A49096888420DD2FFE71C4847
:10532000006801998900405800BA16490860FFE7F3
:105330000198401C0190ECE7124800680290E74990
:1053400008680B380860E449086811300860029862
:105350000E4909680968884204D0FFE703A90020C4
:10536000087004E0DD49086811380860FFE7FDF7C0
:105370003BF803A8007804B080BDC0463000002090
:1053800080010020003002405800002074010020FD
:105390008401002080B588B007900691059204A989
:1053A00000200870079803900698029005980190D5
:1053B00038480068384909684840401C00284FD1E7
:1053C000FFE7344800680299884218D3FFE728496C
:1053D00000220846FBF709FC012804D1FFE704A9D5
:1053E0000420087003E004A903200870FFE7039875
:1053F000284908600398C043274908602FE02548E2
:10540000006801990F39884205D3FFE701981338E6
:1054100020490860FFE71F4800681549091D002260
:10542000FBF7E3FB012815D1FFE71A480068019953
:105430001339884205D1FFE701980F3815490860F4
:10544000FFE714480168103101600068C043124949
:10545000086003E004A903200870FFE7FFE703E00A
:1054600004A901200870FFE704A8007808B080BDF7
:105470000000002080B502F0AFFD05480168032060
:105480008143044801600068C0430349086080BD4F
:105490000C060020200000202400002080B582B0EF
:1054A0006846002101707B2002F040FB002818D1E3
:1054B000FFE77C2002F03AFB002812D1FFE77A20B8
:1054C00002F034FB002818D0FFE77D2002F02EFB0D
:1054D000002812D1FFE77E2002F028FB00280CD123
:1054E000FFE72F48016801221206114301600020E6
:1054F000022100F0D9FDFFE7FEE77D2002F016FB58
:1055000000280ED1FFE77E2002F010FB002808D013
:10551000FFE723480168012212061143016005F0EC
:105520001BFE7A2002F002FB002812D0FFE77D204C
:1055300002F0FCFA00280CD0FFE77E2002F0F6FA19
:10554000002806D1FFE740203F2105F038FDFFE7A6
:10555000FEE77D2002F0EAFA002812D0FFE77E2065
:1055600002F0E4FA00280CD0FFE70D4801680122A0
:1055700013061943016068460270009801A908707B
:1055800009E00748016801221206114301600098F2
:1055900001A90870FFE701A8007802B080BDC046ED
:1055A0002410024080B584B0494800210160494878
:1055B00001604B20C0010391FCF7F0FDB048039956
:1055C0000160B048CA430260FFF776FE012804D0AC
:1055D000FFE70320FFF7C0FAFFE7A9480168491D6C
:1055E0000160FFF75BFF012804D0FFE70520FFF70C
:1055F000B3FAFFE7A3480168491F0160FFF774FB96
:10560000374800688047012804D0FFE70B20FFF7E8
:10561000A3FAFFE7262005F0ADFD002804D1FFE73F
:105620002620FFF799FAFFE772B602F0D5FC2D4865
:10563000016801204007C84AFBF76CFA012806D030
:10564000FFE762B60020C043FFF786FAFFE702F0EB
:10565000C3FC24480168012040070022FBF75AFAE6
:10566000012806D0FFE762B60020C043FFF774FAB6
:10567000FFE762B6824800210160824AC943116097
:1056800002900192FFF71EFD00F0E2F80298016817
:10569000353101603149324A0A60324A4A60324A41
:1056A0008A60324ACA6001990A68353A0A607C20E9
:1056B00005F060FD002804D1FFE77C20FFF74CFADD
:1056C000FFE70948AA210160FAF7FAFC04B080BD9F
:1056D000640000203C000020300000205800002022
:1056E00030040020100600200430024081B06846DB
:1056F00001210170F04801683B310160F248006807
:10570000F249884204D0FFE7684600210170FFE7B4
:10571000ED484068EE49884204D0FFE76846002122
:105720000170FFE7E8488068EA49884204D0FFE753
:10573000684600210170FFE7E348C068E6498842F7
:1057400004D0FFE7684600210170FFE7DB480168ED
:105750003B3901606846007801B07047F01B0020BB
:10576000EEEEEEEECCCCCCCCBBBBBBBBDDDDDDDDF1
:1057700080B582B001A803210170CF490A681D32AB
:105780000A60007803280BD1FFE700F0FDF800283D
:1057900004D1FFE701A80521017000E0FFE7FFE762
:1057A00001A80078032804D1FFE701A80A210170AD
:1057B000FFE7EE4801681D39016001A8007802B0DA
:1057C00080BDC04680B584B0E448016817310160EF
:1057D00000F092F901460A28039127D80398C046A1
:1057E0007844007940008744202020200E21212188
:1057F00017200500ED480168173901605848017805
:10580000491C01701BE0104805F046FE172102906C
:105810000846FFF7A1F912E00A4805F03DFE1721FE
:1058200001900846FFF798F909E0FFE7074805F0FF
:1058300033FE172100900846FFF78EF9FFE704B00A
:1058400080BDC046A1C5000822C50008CBC4000821
:1058500080B582B0D448016817310160FFF788FF36
:1058600001A9087008780A2804D0FFE71720FFF77D
:1058700073F9FFE7CD4801681739016002B080BDB8
:10588000300000205800002080B584B086480068B1
:10589000314988425DD1FFE7834800688349096840
:1058A0004840401C002849D1FFE77F4800210160A3
:1058B0002B480078002814D1FFE7FFF721FC0128CE
:1058C00009D0FFE7284805F0E7FD022103900846CC
:1058D000FFF742F904E022480178491C0170FFE714
:1058E0002BE01F480078012814D1FFE700F040F9B1
:1058F000012809D0FFE71B4805F0CEFD35210290B5
:105900000846FFF729F904E015480178491C0170A1
:10591000FFE711E012480078022803D1FFE7FFF704
:1059200051FF08E00E480078032803D1FFE7FFF796
:1059300003FCFFE7FFE7FFE7FFE709E0074805F0A3
:10594000ABFDFF21483101900846FFF705F9FFE75D
:10595000FFE704B080BDC046AAAAAAAA7CC5000879
:10596000CC0700201FC60008CAC5000880B505483E
:105970000168E24A11600068C043E1490860FCF731
:1059800033FD80BD8401002080B584B003A80121CF
:1059900001700290019104F02FFB01988107102201
:1059A00008460091114603F001FD0098019903F0AB
:1059B0001BFD0C210098019A03F0DEFC0298007890
:1059C00004B080BD80B584B0FFF754FD3448002199
:1059D00001603448CA4302603348016033480260C2
:1059E0003348016033480260C3480160CA4802601E
:1059F0003348016033480260334834490160344918
:105A00004160344981603449C160344800687D2177
:105A1000C900FBF77FF903F093F9002809D0FFE7ED
:105A20002F4805F039FD2B2103900846FFF794F825
:105A3000FFE7FCF7D9FC002002900299FCF7B4FCC8
:105A4000B14908600868C043B0490860FFF74CF9E5
:105A5000FFF78CFFA9480168224805F01DFD224987
:105A60000968FF2248324A43A721490051181F4ABA
:105A700011601F491F4A0A606249029A0A60019038
:105A8000FFE760480068002801D1FFE7F9E79A487E
:105A900000210160A048C943016004B080BDC04638
:105AA0003C0000206400002040000020680000202E
:105AB0004800002070000020300000205800002026
:105AC000340000205C000020F01B0020EEEEEEEE23
