:020000040800F2
:1000000000200020D5000008D5670008E5000008A2
:1000100000000000000000000000000000000000E0
:10002000000000000000000000000000E7000008E1
:100030000000000000000000E9000008ED7D00085D
:100040008D9A00088169000897690008E12E000870
:10005000AD6D0008492B00084B2B00084D2B000804
:1000600075400008492400084B2400084D2400086E
:10007000B1150008C9810008018200080582000846
:10008000198300086183000863830008C3810008A6
:10009000B5150008C5810008C7810008B5400008F3
:1000A000B1200008797A00087B7A000839910008AD
:1000B0003D910008ED00000861910008000000007B
:1000C0000348854601F030FA0048004789150008CA
:1000D00000200020064880F308880648804706482C
:1000E0000047FEE7FEE7FEE7FEE7FEE7FEE700006B
:1000F0000020002051800008C1000008F0B5022255
:10010000825E0421684B415E5A434C10D61332196B
:10011000331B5242654D002A64DC002B20DC524226
:100120005B4212B2691AC2801BB249100381A94214
:1001300000DD2946002901DA002400E00C46048293
:10014000511801D5002200E00A4659188281A942BF
:1001500000DC0D46002D00DA0025C5810220F0BD2F
:10016000002921DC49420BB251420AB2A91BC380CB
:1001700009190281491001D5002400E00C465918E4
:10018000C481A94200DD2946002901DA002300E0EC
:100190000B4651180382A94200DC0D46002D00DAFF
:1001A000002585810620F0BDC1801BB25219038154
:1001B000521001D5002400E0144689180482A94297
:1001C00000DD2946002901DA002200E00A4659181C
:1001D000C281A94200DD2946002900DA002181817F
:1001E0000120F0BD002B40DC5C4226B24C42C680B0
:1001F00024B2048100291ADCA91A491001D5002271
:1002000000E00A4671188281A94200DD29460029D2
:1002100001DA002200E00A466318C281AB4200DD29
:100220002B46002B00DA002303820420F0BD14B219
:10023000C4805A190181521001D5002300E01346F1
:10024000A2188381AA4200DD2A46002A01DA00238F
:1002500000E013468E180382AE4200DC3546002DC6
:1002600000DA0025C5810320F0BD1BB2C38012B2A5
:1002700049190281491001D5002400E00C465918A3
:10028000C481A94200DD2946002901DA002300E0EB
:100290000B4654188381AC4200DD2C46002C00DA5A
:1002A000002404820520F0BDDA6E0000FF7F00000C
:1002B0000122D20382181204930D0322120213406A
:1002C000012270B5D20382189204120E5200E04C43
:1002D000002B14D00126F60381198904FF25090E8D
:1002E000691A4900FF3B5B1E0BD0FF3B5B1E04D02D
:1002F000FF3B012B00D1605E70BDA05E70BDA05AB7
:1003000000E0605A404200B270BD0122D203821860
:100310001204930D032212021340012230B5D203BE
:1003200082189204120EFF24A21A5200C84C002B0D
:1003300012D00125ED0341198904090E4900FF3B44
:100340005B1E0DD0FF3B5B1E04D0FF3B012B02D197
:10035000605A02E0A05E30BDA05A404200B230BDFB
:10036000605E30BD0121C903411809048A0D0321D3
:1003700009020A400121C90340188004010EFF2030
:1003800008B5401A4000B24B4900002A16D0FF3A87
:10039000521E19D0FF3A521E03D0FF3A012A0BD148
:1003A00004E0185A6A461080585A04E0595A6A46BE
:1003B00049421180185A5080009808BD185A6A4660
:1003C00040421080585A03E0595A6A461180185A20
:1003D0004042F0E770B506460020085E0C467043C8
:1003E00002214000615E00F02BF905460420205EEA
:1003F000062146437000615E00F022F9A1680C22DC
:100400000918A160A25E1004814205DAE0890004A7
:10041000814201DDA06800E0A060001429140818E2
:100420008C49884200DD08468A49C943884200DA7F
:10043000084600B20123824201DA104604E00E2190
:10044000615E814202DD0846238270BD0021218267
:1004500070BD70B5044600200C21205E615E1C2238
:100460004143CB131821615EA25E1E25891A022228
:10047000A25E5143C9135918A1810E23E35E655F43
:100480005843C3131A20205E401B5043C0131A1850
:10049000E281208A081A618A00B2511A0DB2042141
:1004A000615E814201DCE0880DE04942814202DB6D
:1004B000E088404207E00821615E4143C8130A21F9
:1004C000615E00F0BDF8A0830420205EA84201DC3C
:1004D000E0880DE04042A84202DBE088404207E0AD
:1004E0000820205E0A216843C013615E00F0A8F86E
:1004F000E0831C20205EA0821E21615EE18220221A
:10050000A25E002A03DA4042A0824842E08270BD27
:1005100070B505461020085E0C4668431221400065
:10052000615E00F08DF806460C20205E0E214543EA
:100530006800615E00F084F8A16809183046A16087
:1005400000F06EF814216060615E82B200144A43CC
:100550004843D213400016211018615E00F070F875
:10056000216808182060001470BDF0B50423394ECE
:1005700000250224CB5E02464D5F0C5FF743934299
:100580000CDA5819B04200DD3046B84200DA38467D
:1005900000B2134690420FDD18460DE00546934227
:1005A0000ADD181BB04200DC0646BE4200DA3E46B9
:1005B00030B2A84200DA1046904201D1012200E098
:1005C0000022CA808880F0BD70B50D460B68AA680D
:1005D00004464968A24207DA1946104600F020F89E
:1005E0002146A04213DC13E0A24211DD501A494219
:1005F00016460E430346B3430A40824301D5012009
:10060000C007002B00DA14482146A04200DA084651
:10061000A04201D1012100E00021A981A86070BDA4
:10062000024610B5144640180C430346A3430A4043
:10063000824301D50120C007002B00DA064810BD17
:10064000002902DA4942084170478840704700009B
:1006500074A80008FF7F0000FFFFFF7FF0B45B4835
:100660000168C91C01605A4801680068884254D179
:1006700058480168006888424FD1012154480268F7
:100680000068904249D1534802680068904244D1C2
:1006900002224F480368006898423ED14D480368E3
:1006A0000068984239D10323494804680068A04291
:1006B00033D1484804680068A0422ED1042444483D
:1006C00005680068A84228D1424805680068A84229
:1006D00023D105253E4806680068B0421DD13D483B
:1006E00006680068B04218D10626394807680068D5
:1006F000B84212D1374807680068B8420DD10727C1
:10070000334800688046404507D13248006880463B
:10071000404502D10820804602E0022003F018FA8A
:100720002B48006881464845F7D12A480068814631
:100730004845F2D109208146254800688246504547
:10074000EBD12448006882465045E6D10A20824613
:100750001F48006883465845DFD11E48006883461D
:100760005845DAD10B208346194800688446604515
:10077000D3D11848006884466045CED10C20844609
:1007800015480129C9D1022AC7D1032BC5D1042C90
:10079000C3D1052DC1D1062EBFD1072FBDD1082051
:1007A0004045BAD109204845B7D10A205045B4D1B7
:1007B0000B205845B1D10C206045AED107480168E7
:1007C000C91E0160F0BC0120704700BF300000204E
:1007D000E0070008E407000821070008580000208F
:1007E000AAAAAAAA5555555500000080A8AAAAAAE7
:1007F00054555555F0B40020C0B2003068D167D4CC
:10080000013865D5023063D362D061D47048006886
:1008100000185DD76F480168C91C01606E48016807
:100820000068884254D16D480168006888424FD101
:100830000121694802680068904249D1674802680E
:100840000068904244D102226348036800689842DD
:100850003ED1624803680068984239D103235E485C
:1008600004680068A04233D15C4804680068A04274
:100870002ED10424584805680068A84228D157485A
:1008800005680068A84223D105255348066800681A
:10089000B0421DD1514806680068B04218D1062602
:1008A0004D4807680068B84212D14C480768006894
:1008B000B8420DD10727484800688046404507D117
:1008C000464800688046404502D10820804602E044
:1008D000032003F03DF94048006881464845F7D1C0
:1008E0003E48006881464845F2D1092081463A4891
:1008F000006882465045EBD1384800688246504532
:10090000E6D10A2082463448006883465845DFD144
:100910003248006883465845DAD10B2083462E487A
:10092000006884466045D3D12C4800688446604501
:10093000CED10C2084462A480129C9D1022AC7D128
:10094000032BC5D1042CC3D1052DC1D1062EBFD197
:10095000072FBDD108204045BAD109204845B7D15D
:100960000A205045B4D10B205845B1D10C20604528
:10097000AED1EFF309801B49096881F30988EFF3D1
:1009800009828A42A4D11849096881F30988EFF3E2
:1009900009828A429CD180F30988EFF308801149CB
:1009A000096881F30888EFF308828A4290D10E49E2
:1009B000096881F30888EFF308828A4288D180F3BE
:1009C00008880A480168C91E0160F0BC0120704710
:1009D000E807000830000020E0070008E4070008EE
:1009E000D7080008EC070008F007000858000020AE
:1009F000FCFFFFFF000000000400000008000000F2
:100A00000C0000001000000014000000180000009E
:100A10001C000000F8FFFFFF0000000004000000C1
:100A20000C0000000800000010000000140000008E
:100A30001C00000018000000012400220023B04A1E
:100A4000B04B12681B6805008D4202D82A602D1D2C
:100A5000FAE705008D4211D82E68964257D12B60D7
:100A60006E68964253D16B60AE6896424FD1AB60D0
:100A7000EE6896424BD1EB601035EBE705008D42F6
:100A800011D82E689E4242D12A606E689E423ED1A5
:100A90006A60AE689E423AD1AA60EE689E4236D144
:100AA000EA601035EBE70D000F3D854211D3EE688B
:100AB00096422CD1EB60AE68964228D1AB606E684E
:100AC000964224D16B602E68964220D12B60103D57
:100AD000EBE70D000F3D854211D3EE689E4216D123
:100AE000EA60AE689E4212D1AA606E689E420ED144
:100AF0006A602E689E420AD12A60103DEBE705002D
:100B00008D4205D82E68964201D12D1DF8E70024AC
:100B100020007047012413005B425B1E05008D42DC
:100B200002D82A602D1DFAE705008D4211D82E68E3
:100B3000964257D12B606E68964253D16B60AE6877
:100B400096424FD1AB60EE6896424BD1EB601035C8
:100B5000EBE705008D4211D82E689E4242D12A60F3
:100B60006E689E423ED16A60AE689E423AD1AA60EB
:100B7000EE689E4236D1EA601035EBE70D000F3D7E
:100B8000854211D3EE6896422CD1EB60AE68964256
:100B900028D1AB606E68964224D16B602E68964275
:100BA00020D12B60103DEBE70D000F3D854211D3A6
:100BB000EE689E4216D1EA60AE689E4212D1AA60EB
:100BC0006E689E420ED16A602E689E420AD12A60EB
:100BD000103DEBE705008D4205D82E68964201D105
:100BE0002D1DF8E7002420007047F0B4464D2E6814
:100BF0000B362E6013005B425B1E444C05008D4299
:100C000040D00025665987592D1D4F51142DF9DD0F
:100C10000025665982512D1D142DFADD00256659D7
:100C20008759974266D183512D1D142DF7DD00257C
:100C3000665987599F425DD182512D1D142DF7DDD4
:100C400018252D1F66598759974253D18351002D7E
:100C5000F7D818252D1F665987599F424AD18251CE
:100C6000002DF7D8002566598759974242D12D1D8E
:100C7000142DF8DD18254F592D1F66598751002D69
:100C8000F9D831E00425665982512D1D202DFADD59
:100C900004256659875997422CD183512D1D202D4B
:100CA000F7DD0425665987599F4223D182512D1DB6
:100CB000202DF7DD24252D1F66598759974219D11C
:100CC0008351042DF7D824252D1F665987599F423B
:100CD00010D18251042DF7D80425665987599742BF
:100CE00008D12D1D202DF8DD094C25680B3D256010
:100CF000012000E00020F0BC704700BF00BF00BF33
:100D0000E0070008E407000834000020F0090008AC
:100D10005C00002030B50B46014600202022012453
:100D200009E00D46D5409D4205D31D469540491B1F
:100D30002546954040191546521E002DF1DC30BD68
:100D400070B500242546002801DA0124404200291C
:100D500001DA01254942FFF7DDFFAC4200D04042F5
:100D6000002C00D0494270BD002800DA4042704794
:100D7000024670B54A40D30FDB0740002DD04A0031
:100D80002AD0010E140E000212020919400A520A5A
:100D90008418E50104465443000A120A2E04504305
:100DA000A4194219200CC543AA18120C0125AD0341
:100DB000521C521912047F39240400D0521C1043D3
:100DC00001D44000491EC2B20C06C0092018401CC4
:100DD0004008802A02D003E0002070BD4008400097
:100DE000002900DA0020184370BD70B502464A4061
:100DF000D50F40004A00ED0740085208002814D0E3
:100E0000002A12D0C40DD30D41020120C0055202A8
:100E1000490A520AE41A091812187D34914201D382
:100E2000641C00E04900002C01DA002070BD0023A2
:100E3000914201D3891A0343400849000028F7D1A1
:100E400000290AD0914202D10121C90705E091424F
:100E500001D2012101E00121C943E005C018401978
:100E600000F08EFA70BD0000F0B507460846584005
:100E700087B0C00F049048000E465900400849084A
:100E8000BC1A884105D2384631461E4617460B46E5
:100E900002465800400810434CD0300D03904005E6
:100EA0005900400D490D0590401A0290402872DA11
:100EB00018030121000B09050843019004980092D2
:100EC000002805D0019952420020884100920190EB
:100ED000029840210A1A0199009800F01DFA05466F
:100EE0000C466B4607CB00F038FAC0197141039AE3
:100EF0000E0D0023D71756401A467A40164344D0A9
:100F0000049A002A2DD0029A012A039A15DC1205B0
:100F1000C01A914101263605001C7141D20F059E71
:100F2000D2070093019202962A46234600F076FAF1
:100F300007B0F0BD38463146FAE71605224A0F469B
:100F4000B218C01AB74101210905001C4F41001811
:100F50007F41114618187941E20F10436D19644121
:100F600013E0E2076D0815436408C2071443039AAF
:100F700001261205C01A91413605001C7141CE07A9
:100F8000400830434908C01851412A46234600F022
:100F900038FACDE7FFE7049801224000C117121A82
:100FA00000238B4104983146C417381AA141EEE75B
:100FB00030B40124E407634030BC55E730B4012469
:100FC000E407614030BC4FE70000E0FFF0B51FB41C
:100FD00088B00B990998002448400999C00F49002E
:100FE00049080991C0070B990090490049080B91E5
:100FF00009990898A64608431CD00B990A980843FB
:1010000018D0099801244000420D4800410D09986C
:1010100024050003000B204309900B980003000BEC
:1010200020430B9050181C49401800220190144690
:10103000104605E0002001460DB0F0BD032801DA9E
:10104000034600E003239C46C11A0AAE0AE05F0093
:1010500008ADED5B4F00F75B7D430027AA187C418C
:10106000491C5B1E6145F2DD410004AB5A5221046C
:10107000120C0A43240C401C0828DFDB0198029064
:101080000099704601910090059B049A0799069873
:1010900000F0C4F9D0E700000DFCFFFFF0B50C46EE
:1010A0005C4085B0E40FE40703944C00002664081C
:1010B00059009446490802460296224321D06246CE
:1010C0000A431ED06200570D4A000E032303550D3C
:1010D000012402462C492405781B1B0B360B4018B3
:1010E00023432643614600901C46501AB44103D363
:1010F0000098401C009002E0921800985B41002884
:1011000003DA0020014605B0F0BD002001210905E9
:101110000746864611E064461D46141BB54106D3BA
:101120006546521BB341744607430C43A646CD07A0
:1011300040084908284392185B4105460D43EAD10F
:101140001046184313D0604619465040714008437A
:1011500006D06046101AB34106D20122002306E0F1
:1011600000220123DB0702E00122D2435310009842
:1011700074460105381C6141029C039D00196941B8
:1011800000F03FF9BFE70000FD03000010B50029A3
:1011900004DB0C460121C9074042A141002B04DBBE
:1011A0001C460123DB075242A341801A994101D317
:1011B000012010BD002010BD10B5002904DB0C4635
:1011C0000121C9074042A141002B04DB1C46012339
:1011D000DB075242A341101A8B4101D2012010BDFE
:1011E000002010BD10B5002904DB0C460121C90701
:1011F0004042A141002B04DB1C460123DB07524285
:10120000A341101A8B4101D3012010BD002010BD55
:1012100010B500229623114600F0BAF810BD000068
:101220000EB5C217C10F5040CA0740180021054B28
:101230000293019200910A460B4600F0EFF803B0CA
:1012400000BD000033040000410040020122400ABA
:10125000D205090E80187F2901DA002070479629EF
:1012600003DC9622511AC84070479639884070476F
:1012700070B5CD0F4A0009030123090B1B05194363
:101280000B4BED070024520D9A4201DA002070BD8D
:10129000074B34339A4203DC9A1A00F04DF802E00F
:1012A0000449511888402C43F1D0404270BD0000E1
:1012B000FF030000CDFBFFFFF0B51FB40646002082
:1012C00082B005464024019100901BE0019922461E
:1012D0000F46304600F030F8049A059B801A994179
:1012E00010D310461946224600F016F8361A8F41E0
:1012F0000197224601200021009F00F00DF83818C8
:101300004D4100902046641E0028DFDC019B0098C0
:101310002946324607B0F0BD10B5202A04DB01464D
:10132000203A9140002010BD914020239C1A034692
:10133000E3401943904010BD10B5202A04DB084655
:10134000203AD040002110BD0B46D340D04020248D
:10135000A21A91400843194610BD10B5202A06DB99
:10136000CB170846203A1041C1170B4306E00B4645
:101370001341D0402024A21A91400843194610BDC1
:10138000002904DA401C490001D1400840007047A0
:1013900070B40024050C05D11024000402D10029EA
:1013A00021D01124050E01D100020834050F01D10E
:1013B0000001241D850F01D18000A41C002801DB41
:1013C0004000641C002908D020252E1B0D46F54046
:1013D000A14000D001212943084301061B1B000A3C
:1013E000DB1D02D5002070BC7047DB051818801883
:1013F0000029F8DA401C4900F5D170BC40084000D3
:10140000704710B5002B08DA0024401C6141921887
:101410005B411A4301D14008400010BDF0B51FB434
:1014200082B005460C0003D0084608F0A7FD02E094
:1014300008F0A4FD20300246009021462846FFF720
:101440006BFF049B059A04460F461843114308435B
:1014500014D0184610431BD0009840210A1A184691
:101460000599FFF769FF05460E46009A059904980D
:10147000FFF752FF084305D0012004E0204639461B
:1014800007B0F0BD0020C11705430E432C4337437E
:1014900000990E986305401A7905E40A00220C436E
:1014A000FD0A0A3002D500200146E9E701051019BE
:1014B00069410C9C0D9D00196941FFF7A2FFDFE710
:1014C0004A0009030123090B1B0519430A4B10B5F8
:1014D000520D9A4202DA0020014610BD064B343309
:1014E0009A4203DC9A1AFFF727FF10BD034BD2186C
:1014F000FFF712FF10BD0000FF030000CDFBFFFF50
:1015000010B5002904DB0124E40740428C41214648
:10151000002B04DB1C460123DB075242A341994206
:1015200000D1904210BD0000064C0125064E05E09A
:10153000E36807CC2B430C3C98471034B442F7D3F4
:10154000FEF7C2FD28B0000898B0000830B58C182E
:101550000278401C13071B0F01D10378401C1209AD
:1015600006D10278401C03E005780D70401C491C30
:101570005B1EF9D101E00B70491C521EFBD1A14248
:10158000E6D3002030BD000080B582B00748006877
:10159000AA2803D0FFE702F0FFFFFFE7034800217E
:1015A000016008F04BFC019002B080BD04300240A5
:1015B0007047000080B582B057480068012108429A
:1015C00000D1A6E055480121017001F08AFC544980
:1015D000088006F069FA534800887F2817DCFFE787
:1015E00050480188491C0180564800685649084007
:1015F000524A13681818106054480068084050494F
:101600000A6810180860012000F012FF59E04548F0
:10161000008880281AD1FFE742480188491C0180D0
:1016200046480168C909016045490A68D2090A604B
:101630000A68D2003C4B5A850A68D2009A8500227B
:1016400002600A60012000F0F3FE39E0002000F0A3
:10165000EFFE3548019002F0CFFC3448007880005E
:1016600033490858804733480178491C0170C8B293
:10167000E421019A515A884208DBFFE72D480021F6
:1016800001702948E62101224254FFE72A480178E7
:10169000491C0170C8B22449E422895A0A224A43EB
:1016A00090420ADBFFE72448002101701E48E72131
:1016B0000122425404F0B2FBFFE701F0C3FBFFE755
:1016C000FFE715480168012211430160134800211A
:1016D000017001F006FC1E4908800888104909883D
:1016E00088420DDAFFE70E48008801210904081A34
:1016F000184908800888164A12888018088007E070
:101700001348008806490988401A12490880FFE7F3
:10171000FFE702B080BDC04614280140B603002098
:10172000B2030020380100201804002030010020FE
:1017300018AD000844010020450100203C010020B4
:101740004001002018240140FF0F0000182801402C
:10175000B4030020B0030020B0B586B013460C4699
:101760000546059004A8017003A90A7001780F22AC
:10177000114001700078072802940193009513DC52
:10178000FFE704A8017889000F228A400599CB6DF4
:101790009343CB6503A909780078800081400598C0
:1017A000C26D0A43C26514E004A80178890020399B
:1017B0000F228A4005990B6E93430B6603A90978A3
:1017C00000788000203881400598026E0A43026646
:1017D000FFE706B0B0BD84B00A460346039002A8F6
:1017E0000170007800280192009306D0FFE703986B
:1017F000816E01221143816605E00398816E01220A
:1018000091438166FFE704B0704784B00A460346FF
:10181000039002A80170007810280192009304DB65
:10182000FFE702A80F210170FFE702A800780399E3
:10183000486604B0704710B582B001460190019827
:10184000826E01231C0522438266019842681A4376
:1018500042600091FFE70198806D0121090608426E
:1018600001D1FFE7F7E702B010BD84B00A46034696
:10187000039002A80170007801280192009306D11C
:10188000FFE70398416901221143416105E0039894
:101890004169022211434161FFE704B0704784B0FF
:1018A0000A460346039002A80170007800280192BE
:1018B000009306D0FFE7039841680122114341607D
:1018C00005E003984168012291434160FFE704B0BD
:1018D000704784B00A460346039002A8017000785E
:1018E00000280192009306D0FFE703988168042244
:1018F0001143816005E0039881680422914381606F
:10190000FFE704B07047B0B586B013460C460546F5
:10191000059004A8017003A90A70007801280294B8
:101920000193009512D1FFE703A80078002806D0A4
:10193000FFE70598816801221143816005E0059861
:101940008168012291438160FFE711E003A80078DC
:10195000002806D0FFE705988168022211438160C4
:1019600005E005988168022291438160FFE7FFE767
:1019700006B0B0BD10B584B00A460346039002918C
:10198000039841680E4C214041600298416800680C
:101990000143039844680C43446003988168094CF0
:1019A00021408160029841690469214380680143B4
:1019B000039884680C4384600192009304B010BDC6
:1019C0000FBCFFFF8FF1F9FFF0B589B01C4615463B
:1019D0000E460746089007A8017006A90A700593ED
:1019E00005990F2211400591007804900498082869
:1019F000039502960194009717D3FFE704980F21EF
:101A000008400490049808380490049880008140AD
:101A10000898426F8A434267059804998900884074
:101A200008994A6F02434A6710E0049880000F212A
:101A300081400898026F8A430267059804998900DB
:101A4000884008990A6F02430A67FFE707A80178F0
:101A5000012213468B400899CC689C43CC600178E6
:101A600013468B400899CC681C43CC6000788240B8
:101A70001004002804D5FFE7012000F023F80CE053
:101A800007A80078012181404804002804D5FFE719
:101A9000012000F017F8FFE7FFE709B0F0BD82B0C2
:101AA000014601900198002202600198426001986D
:101AB000826001980273019802610198426100916D
:101AC00002B0704782B0014601AA10701078002859
:101AD000009106D0FFE7074801680C22114301601E
:101AE00005E0044801680C2291430160FFE702B061
:101AF0007047C04604240140F0B58FB01C4615461F
:101B00000E4607460E900D910C920B930D98079080
:101B100006A8002101700991059404950396029787
:101B2000FFE7099807284AD8FFE700200A90FFE757
:101B30000A98FF2838D8FFE70E980A99491C4143B4
:101B40000998401C019008460199FFF7E3F80890B6
:101B500008980D99884205D9FFE708980D99401A11
:101B6000009004E00D980899401A0090FFE7009853
:101B7000089007980899884209D9FFE708980790C4
:101B80000A980C99086009980B990860FFE7079874
:101B9000002804D1FFE706A80121017004E0FFE757
:101BA0000A98401C0A90C3E706A80078002801D0D4
:101BB000FFE704E0FFE70998401C0990B1E70798A8
:101BC0000FB0F0BD80B584B003A8029002F002FA15
:101BD0000120C10401900846019904F03BFF0198DF
:101BE0004103029A1180032191702821D17003488A
:101BF000114602F01DF904B080BDC046000800483F
:101C000080B584B00120410402900846029904F096
:101C100021FF03A8019002F0DDF90420019908805A
:101C2000032088701820C8700920C006009002F0B8
:101C3000FFF80820019908804820C870009802F039
:101C4000F7F804B080BD000070B59AB010A800216C
:101C5000017006224270024608321192012202727D
:101C600041720346103313930223037442740446F3
:101C700018341594032404760E2545760546203540
:101C8000179520250426465521250F2646551991DE
:101C900008AD29700B266E702E46083609962A72FA
:101CA00007266E722E4610360B962B7469742B46DF
:101CB00018330D932C760C236B760F919304124CF2
:101CC00007902046069119460594049303920295C5
:101CD00000F056FC0D480190049900F051FC059865
:101CE0000799069A00F096FC01980299069A00F06E
:101CF00091FC05980399FFF7D2FD01980399FFF72E
:101D0000CEFD1AB070BDC04600240140002801403D
:101D100080B582B001A830218170002101800121AD
:101D2000C170042100900846009900F0B8FC02B090
:101D300080BD000080B586B005A8049002F04AF985
:101D4000032040040121039104F084FE0020049943
:101D5000C870039882020A800923DB0618460292A3
:101D6000019302F065F8039804990880019802F045
:101D70005FF8802004990880019802F059F80298D1
:101D800004990880A04802F053F840200499088084
:101D9000019802F04DF8022004990880019802F0A1
:101DA00047F803984102049A11800198114602F005
:101DB0003FF806B080BDC04680B584B003A802904D
:101DC00002F008F90120010501900846019904F08C
:101DD00041FE8020029908802820C87005480090A4
:101DE00002F026F807210522009802F0ADF804B0B1
:101DF00080BDC046000C004880B584B003A80290A6
:101E000002F0E8F80120410401900846019904F02D
:101E100021FE0198C102029A11800021D170032194
:101E200091700921C806114602F002F804B080BD85
:101E300080B500F011F800F02BF8FFF77BFFFFF7FB
:101E4000DBFF00F07FF8FFF7DBFEFFF7B5FF00F0E8
:101E500057F8FFF7B7FE80BD80B584B003A80290A5
:101E600002F0B8F80120410401900846019904F0FD
:101E7000F1FD0198C103029A118003219170102194
:101E8000D1700921C806114601F0D2FF04B080BD0F
:101E900080B586B005A8049002F09CF803204004A9
:101EA0000121039104F0D6FD00200499C87020227E
:101EB0000A800922D20602901046019201F0B8FF72
:101EC0001020049908800298C870019801F0B0FFB2
:101ED0000398C102049A11800299D1704A4B1846A6
:101EE0001146009301F0A4FF03980103049A1180A6
:101EF0000299D1700098114601F09AFF06B080BD9A
:101F000080B584B003A8029002F064F80120810437
:101F100001900846019904F09DFD01984103029A41
:101F20001180032191701821D17037490846009122
:101F3000114601F07DFF0D210622009802F004F801
:101F400004B080BD80B588B007A8069002F042F8C2
:101F50000120810405900846059904F07BFD059851
:101F60000102069A1180032191701823D370264B29
:101F7000184604911146039301F05AFF2020069958
:101F80000880039801F054FF802006990880039888
:101F900001F04EFF402006990880039801F048FFA9
:101FA000082006990880039A0290104601F040FF2D
:101FB000102006990880039801F03AFF03980299CF
:101FC000049A01F0C1FF05210720039A01901046F1
:101FD000019A01F0B9FF0620039900900846019983
:101FE000009A01F0B1FF03980099019A01F0ACFF4B
:101FF00003980499009A01F0A7FF04210398009A1E
:1020000001F0A2FF08B080BD0004004880B58EB08A
:1020100001460D9025480122079006911146059230
:1020200004F0D8FE0920C0060490059904F082FD52
:102030000D98089008A8302181800021C18001817D
:10204000818108214181079A03901046039B0291E8
:10205000194607F0F3F80798059907F08FF8022161
:102060000498059A01F070FF032004990190084636
:102070000199059A01F068FF0CA8042101800199DB
:1020800081701822C270049A00901046009901F0E5
:10209000CFFE029800990880019A8A704823CB707D
:1020A000049801F0C5FE0EB080BDC046004400405B
:1020B0007047000010B584B00A46034603AC207098
:1020C00002A80170007800280192009308D0FFE771
:1020D00003A800781C49425801231A43425007E0E4
:1020E00003A800781849425801239A434250FFE759
:1020F00004B010BD82B0014601AA10701078124AD7
:1021000000238350009102B07047C04670B584B080
:102110000A46034603AC20700291029801684568A4
:10212000294385682943C668314329430569294302
:1021300045692943806901432078034C015101938B
:10214000009204B070BDC046003C014070B585B03F
:102150000A46034604AC207003A8017000210291D6
:102160000A490D680295029D0F26B5430295247811
:1021700000780443029820431024204302900298E0
:1021800008600193009205B070BDC046183C014044
:1021900085B00A4603460490039100200290019204
:1021A0000093FFE70298039988420BD2FFE7049857
:1021B00002998900405805490860FFE70298401CD1
:1021C0000290EFE70148006805B070470030024018
:1021D000014801210160704708300240884870477B
:1021E00080B58EB091482421415E0D912621415E3B
:1021F0000C912821405E0B900020079080480790AA
:102200000D9800281EDAFFE707980068FD214901B4
:10221000069100F08DF907990A68101A08600D9868
:1022200007990A681018086007984068069900F036
:102230007FF907994A68101A486053480188491C79
:1022400001801DE007984068FD214901059100F0DB
:102250006FF907994A68101A48600D9807994A68FB
:102260001018486007980068059900F061F907990F
:102270000A68101A086043480188491C0180FFE77A
:102280000C9800281EDAFFE707980069FD21490134
:10229000049100F04DF907990A69101A08610C9829
:1022A00007990A691018086107984069049900F0B5
:1022B0003FF907994A69101A486135480188491C55
:1022C00001801DE007984069FD214901039100F05C
:1022D0002FF907994A69101A48610C9807994A69B9
:1022E0001018486107980069039900F021F90799CF
:1022F0000A69101A086125480188491C0180FFE716
:102300000B9800281EDAFFE70798006AFD214901B3
:10231000029100F00DF907990A6A101A08620B98E9
:1023200007990A6A101808620798406A029900F033
:10233000FFF807994A6A101A486217480188491C31
:1023400001801DE00798406AFD214901019100F0DC
:10235000EFF807994A6A101A48620B9807994A6A77
:10236000101848620798006A019900F0E1F807998F
:102370000A6A101A086207480188491C0180FFE7B1
:102380000EB080BD7E0600207C0600208206002064
:1023900080060020860600208406002080B582B0DA
:1023A00017484168FD2252010190084611460092EB
:1023B000FEF7B0FC0199486348690099FEF7AAFC52
:1023C00001994864486A0099FEF7A4FC01994865A0
:1023D000086840420099FEF79DFC0199086308696E
:1023E00040420099FEF796FC01990864086A404251
:1023F0000099FEF78FFC0199086502B080BDC046C8
:102400006801002082B00146019008482422825EC3
:10241000019B1A602622825E019B5A602822805E00
:10242000019A9060009102B07047C04618040020E5
:1024300082B0014601AA10700198024A1070009102
:1024400002B07047C8010020704770477047000015
:10245000B0B58CB013460C4605460B900AA8018017
:1024600009920B99098809B22D4A4A4308920899A2
:10247000008800B2079008460799069405930495D2
:1024800000F056F84000089008980121C9038842DE
:1024900003DBFFE72348039002E008980390FFE77F
:1024A0000398089008982049884203DCFFE71F48FA
:1024B000029002E008980290FFE7029808900898BE
:1024C000099908800B980221405E15494143089103
:1024D00008980AA9098809B200F02AF84000089073
:1024E00008980121C903884203DBFFE70D480190EA
:1024F00002E008980190FFE70198089008980A49BF
:10250000884203DCFFE70948009002E00898009049
:10251000FFE7009808900898099948800CB0B0BD72
:10252000D96E0000FF7F0000FF7FFFFF0080FFFFEC
:1025300085B00A4603460390029102980028019252
:10254000009303D1FFE70020049010E003980028D7
:1025500003D1FFE70020049009E0039805490860D3
:10256000029805490860054800680490FFE7049850
:1025700005B070470000034004000340080003401A
:1025800080B58EB00A4603460D900C9106A80592C0
:102590000493FFF784FA0D981C49884208D1FFE79D
:1025A0000120410203900846039904F087FA0EE0E7
:1025B0000D981749884208D1FFE701208102029057
:1025C0000846029904F07AFA00E01DE0FFE70D9852
:1025D000FFF731F900200690079001214A02089286
:1025E0000C9A0A920B900D9A06AB0190104600913E
:1025F0001946FFF7BFF90D980099FFF76AF90D9892
:102600000199FFF74CF9FFE70EB080BD00240140AF
:1026100000280140B0B588B013460C460546079027
:102620000691059204A800210170079800280393E1
:102630000294019504D0FFE70698002801D1FFE736
:102640002BE0FFE707980699059B49780022FFF7E2
:10265000BBF904A8007806990978884206DAFFE7F2
:10266000079806990978FFF7D0F8FFE707980699C9
:102670004A780978FFF770F80698007804A908707E
:10268000069840680690FFE706980028DAD1FFE731
:1026900007980121FFF79FF8FFE708B0B0BDB0B57C
:1026A0008EB00A4603460DAC20700C910120C10388
:1026B00004900846049D03912946029301940092D8
:1026C00004F0FCF901980078FFF714FD0C980088DD
:1026D00006900C98807805900498C10207910399A0
:1026E00008914204099204220A920322D2040B9216
:1026F000019A107805A9FFF709FD0C988078302819
:1027000006D1FFE70C98C1782020FFF71FFDFFE7F7
:102710000DA800780121FFF7CDFC0EB0B0BD80B54B
:1027200082B00120810601900846019904F092F9D7
:1027300001F098FC02B080BD80B582B0012004F0A9
:1027400037FBFFE7612004F06FFA002801D1FFE7B3
:10275000F8E704F016F90A48019002F01BFB032089
:1027600002F0FAFA04F0A0FC019802F013FBFF203B
:1027700002F002FB02F0EAFA02F0CCFA02B080BDED
:102780005555000080B582B00120C1030190084674
:10279000019904F093F90198019904F07DF80198EA
:1027A0000004019904F078F802B080BDB0B598B08B
:1027B00013460C460546179016A8018015A80280FE
:1027C00017984249884209930894079508D1FFE772
:1027D0000120C10206900846069904F06FF90EE048
:1027E00017983B49884208D1FFE701204103059033
:1027F0000846059904F062F900E064E0FFE716A8D6
:102800000088139012A8002101800181402282706B
:1028100001228272179B04901846049B039119466B
:10282000029206F0E7F90298C1020EAA1180810215
:10283000518003999180159BD380030313815181AB
:1028400091811798114605F0A7FD0AA87021017023
:102850000299417004228270039A0B9202724272B2
:1028600042818281179B01901846019905F056FF1D
:102870001798019905F0B8FF1798019906F018F814
:102880000A200B900398019948708870179806F0F9
:102890006BF817980821009105F092FF179800999E
:1028A00005F0F0FF1798009906F04AF8179802997A
:1028B00005F058FD1798029905F0C0FD1798039987
:1028C00005F0D6FDFFE718B0B0BDC046002C0140B2
:1028D0000008014080B582B0012041060190084601
:1028E000019904F0B7F802B080BD000010B590B0B7
:1028F0000A4603460FAC20800EA801800BA9069063
:10290000084605910493039206F0DAF907A806F049
:102910006BF80120410402900846029904F0CEF8B9
:102920006A48019005F0C0FD069801880C910F9946
:10293000059A1180002111819170917201981146C0
:1029400006F058F90198029905F00CFD01980299DA
:1029500005F074FD10B010BD10B592B00A460346E4
:1029600011AC208010A801800DA90890084607919D
:102970000693059206F0A4F909A8049006F034F82D
:102980000120810403900846039904F097F86D48EC
:10299000029005F089FD089801880E911199079A17
:1029A000118000211181917091720298019111465C
:1029B00006F020F960200499087003984870019A85
:1029C0008A70089B1C8864080A940A724A810298DB
:1029D00005F0A4FE0821029805F0F2FE0298039982
:1029E00005F0C0FC0298019905F028FD02980199B4
:1029F00005F03EFD12B010BD10B592B00A46034678
:102A000011AC208010A801800DA9099008460891FA
:102A10000793069206F054F90AA8102101700021CC
:102A20004170012282700592049103F0F7FE234861
:102A3000039005F039FD02200290059904F024F876
:102A4000099801880E911199089A118004991181B1
:102A5000917091720398114606F0CCF80BA8019082
:102A600005F02CFE0498019908704870059A8A7048
:102A7000C8708880039805F0CEFF5021039806F0B7
:102A800036F80421039806F045F803980299059A50
:102A900005F026FE03980599059A05F021FE039896
:102AA000029905F0BCFC0398059905F0B8FC039861
:102AB000059905F0C3FC12B010BDC04600040040EB
:102AC00080B5024805F05AFD80BDC0460044014073
:102AD00080B501200149FFF78FFF80BD7FBB00005B
:102AE00080B582B05F200749FFF736FF1548012106
:102AF0000190009105F0BCFC0198009905F09EFC46
:102B000002B080BDE703000080B582B0014601AA93
:102B1000108010880028009105D1FFE709480021A6
:102B200006F00BF809E001A801880548FEF7F2F865
:102B300081B2044806F001F8FFE702B080BDC0464C
:102B400040420F00004801407047704780B582B096
:102B5000802000F0CBF8012804D1FFE7802000F0AE
:102B6000BBF8FFE7534800688021084241D0FFE7E7
:102B700000F0B7F9514908610869C968884206D967
:102B8000FFE74E480169C268891A416009E04B4875
:102B9000C168D94A511A4160416802698918416087
:102BA000FFE700F09EF94749086008684449096852
:102BB000884208D9FFE74348006841490968401A3C
:102BC000424908600BE03E480068CB49081A3F497B
:102BD000086008683B4A126880180860FFE73548BB
:102BE000016880229143016033480168114301600C
:102BF00047E0314800688021084241D0FFE700F0FB
:102C000070F92E49C860C8680969884206D9FFE78B
:102C10002A48C1680269891A016009E027480169E8
:102C2000B54A511A01600168C26889180160FFE75E
:102C300000F057F92249086008682249096888426B
:102C400008D9FFE71E4800681E490968401A1E4956
:102C500008600BE01B480068A749081A1A49086079
:102C60000868174A126880180860FFE71248016870
:102C70008022914301600F48016811430160FFE722
:102C8000FFE70E4841680268891881600F480168B3
:102C90000D4A126889180E4A116000686421414388
:102CA0001068019008460199FEF734F80949086058
:102CB00002B080BD080401400C040140B8030020AC
:102CC00094060020900600209C0600209806002014
:102CD000A0060020A406002082B0014601900198C1
:102CE0000B4A1060009102B07047C04684B00146A4
:102CF000039007480068039A1040012200280291BF
:102D00000190009201D101980090009804B07047A2
:102D10001404014080B504480A210160034864217D
:102D2000016000F0E3F880BD2401002020010020B4
:102D300010B58CB00BA8002101800AAA118009AB44
:102D4000198007900693059206F06EFC08A908808A
:102D50002D486C21415A2D4A11806E21415A5180D3
:102D60007021415A918011884900538894881B1919
:102D7000C91A032304900846194603930292FFF7E9
:102D8000D7FB0799088002984288520003888488FC
:102D90001B19D01A0399FFF7CBFB059908800298FD
:102DA00082885200038844881B19D01A0399FFF7C0
:102DB000BFFB06990880079802885223049CE15EB5
:102DC00010B2019303F043F90299886005980288D4
:102DD000049B019C195F10B203F039F90299C86095
:102DE00006980288049B019C195F10B203F02FF92A
:102DF0000299086188680E4A1060C86850600869C6
:102E000090600CB010BDC0461804002040020020A5
:102E100082B00146019006480268019B1A60426830
:102E2000019B5A608068019A9060009102B07047DF
:102E30003402002080B504F04BFC00F0D5FC00F01B
:102E400079FB80BD80B514480178491C0170007879
:102E5000032804DBFFE710480021017000E0FFE7D2
:102E6000FFF766FF0C480078002803D1FFE704F065
:102E7000EBFDFFE708480078012803D1FFE700F0E9
:102E800073FDFFE704480078022803D1FFE700F054
:102E900055FBFFE780BDC046A402002010B585B0F9
:102EA0000A46034604900391049801684068C417D9
:102EB000240C00190014081A02900298039909685A
:102EC0004143049844686118416004984168CC17F4
:102ED000240C0919091481600192009305B010BDFA
:102EE000704780B5FFF7ECFD80BD000080B5002085
:102EF0000149FFF7FBFC80BDFFFF0000B0B58EB0BD
:102F000001460D900D984022825E0990104608916E
:102F1000FDF728FA0AA90880000C48804888482153
:102F2000099A50520A984623D0520D9804463034DC
:102F30000546463534300790204606912946079AC3
:102F4000059302F0FFFE0D98B421405E0D995222C8
:102F5000895E049203F02FF80BA90880088800B25C
:102F6000384903F028F80D994E2288520D98805A5E
:102F70000D992323DB00C8520D98C05E039203F025
:102F800083F80D998D22520088520D98018F828E00
:102F9000891A81870D984321890041183C22805E5F
:102FA000FDF718FA0D9908830D980399405E0D9A64
:102FB000525E42430D981823C05E4043101A0C9095
:102FC0000C9801F059F80D994B22920088520D98F7
:102FD000805E03F059F80D999722520088520D989F
:102FE000418FC28E891AC1870D9809214901411864
:102FF0003E22805EFDF7EEF90D9948830D98069903
:10300000425A4C23C252059A835A4A2403530D98BC
:103010000346183304464A341C30029018462146B1
:10302000029A02F027FE0D9801461C31049A805E38
:103030000D9B20330190084601991A46FFF708FAC4
:103040000EB0B0BD5655000080B58EB006A8012167
:1030500001707B4841680C917A49496D80688142D2
:1030600003DAFFE70120099003E07648406D0990FC
:10307000FFE77448806D72498968884203DAFFE788
:103080000120089003E06F48806D0890FFE76D48CD
:10309000C06D6B498968884203DAFFE70120079019
:1030A00003E06848C06D0790FFE709980899401849
:1030B000079940180321FDF743FE6149896888425A
:1030C00005DDFFE75F486F210122425404E05D48BF
:1030D0006F2100224254FFE709980B9008980A904C
:1030E0000B980A9988420FDDFFE70B980A99401A5E
:1030F0000D900D98642141430B9805900846059961
:10310000FDF71EFE0D900EE00A980B99401A0D90E7
:103110000D98642141430A98049008460499FDF7EC
:103120000FFE0D90FFE70D980C99884204DDFFE734
:1031300006A800210170FFE70D98FD49496F8842FC
:1031400004DDFFE70D98FA494867FFE708980B9000
:1031500007980A900B980A9988420FDDFFE70B98B1
:103160000A99401A0D900D98642141430B980390E1
:1031700008460399FDF7E4FD0D900EE00A980B99BF
:10318000401A0D900D98642141430A980290084618
:103190000299FDF7D5FD0D90FFE70D980C99884237
:1031A00004DDFFE706A800210170FFE70D98E04964
:1031B000496F884204DDFFE70D98DD494867FFE766
:1031C00007980B9009980A900B980A9988420FDD8E
:1031D000FFE70B980A99401A0D900D98642141431E
:1031E0000B98019008460199FDF7AAFD0D900EE09D
:1031F0000A980B99401A0D900D98642141430A9842
:10320000009008460099FDF79BFD0D90FFE70D9893
:103210000C99884204DDFFE706A800210170FFE752
:103220000D98C349496F884204DDFFE70D98C049F6
:103230004867FFE706A80078012108400EB080BD6E
:1032400084000020B002002080B588B007A80021CB
:10325000017003A8017002A8017001A80170FEF7B7
:10326000BDFF514908600868406B05900868006B15
:103270000490059804994018400806900598410864
:1032800080080818059004984108800808180490E0
:1032900006980599884205D3FFE706980499884265
:1032A00004D2FFE703A801210170FFE73E4801684F
:1032B000496C05910068006C0490059804994018C9
:1032C0004008069005984108800808180590049861
:1032D000410880080818049006980599884205D38B
:1032E000FFE706980499884204D2FFE702A801216B
:1032F0000170FFE72C480168496D05910068006D79
:1033000004900598049940184008069005984108D3
:10331000800808180590049841088008081804904F
:1033200006980599884205D3FFE7069804998842D4
:1033300004D2FFE701A801210170FFE703A800788C
:10334000C00700280AD0FFE702A80078C0070028BD
:1033500004D0FFE707A801210170FFE702A8007869
:10336000C00700280AD0FFE701A80078C00700289E
:1033700004D0FFE707A801210170FFE701A800784A
:10338000C00700280AD0FFE703A80078C00700287C
:1033900004D0FFE707A801210170FFE707A8007824
:1033A0000121084008B080BDA802002080B58CB083
:1033B00007A8012101705D4800680A90C548016EA8
:1033C0000991406E08900998089988420FDDFFE73F
:1033D00009980899401A0B900B9864214143099869
:1033E000069008460699FDF7ABFC0B900EE0089896
:1033F0000999401A0B900B98642141430898059055
:1034000008460599FDF79CFC0B90FFE70B980A997D
:10341000884204DDFFE707A800210170FFE70B9851
:10342000AC49096F884204DDFFE70B98A94908679A
:10343000FFE7A848416E0991806E089009980899A5
:1034400088420FDDFFE709980899401A0B900B9806
:10345000642141430998049008460499FDF770FCE3
:103460000B900EE008980999401A0B900B98642174
:1034700041430898039008460399FDF761FC0B90BF
:10348000FFE70B980A99884204DDFFE707A80021AF
:103490000170FFE70B988F49096F884204DDFFE751
:1034A0000B988C490867FFE78A48816E0991006E86
:1034B00008900998089988420FDDFFE70998089954
:1034C000401A0B900B9864214143099802900846DA
:1034D0000299FDF735FC0B900EE008980999401A07
:1034E0000B900B986421414308980190084601997C
:1034F000FDF726FC0B90FFE70B980A99884204DD44
:10350000FFE707A800210170FFE70B987149096FD9
:10351000884204DDFFE70B986E490867FFE707A8BC
:103520000078012108400CB080BDC0468400002016
:10353000B002002080B503F093FC80BD80B56648E2
:10354000007803280AD1FFE764480078062805D1EF
:10355000FFE700F005F8FEF743FEFFE780BDC04639
:1035600080B58CB0002008905A490A463C32089237
:10357000089A069010460591FEF744FF06980790BA
:103580000599483107910798FFF742FCF048007809
:10359000032800D09BE0EF480078062800D096E092
:1035A000089800680B900B98002804DAFFE70B9846
:1035B00040420B90FFE7089840680A900A9800285C
:1035C00004DAFFE70A9840420A90FFE7089880680B
:1035D00009900998002804DAFFE709984042099009
:1035E000FFE73C4801680122920304900846114617
:1035F0000392FEF79DFF04990A68101A08600B9861
:103600000A681018086048680399FEF791FF04994A
:103610004A68101A48600A984A6810184860886812
:103620000399FEF785FF04998A68101A8860099843
:103630008A6810188860079800680B900B9800281B
:1036400004DAFFE70B9840420B90FFE707984068C9
:103650000A900A98002804DAFFE70A9840420A9084
:10366000FFE70798806809900998002804DAFFE7C7
:10367000099840420990FFE71648C1680122920369
:103680000290084611460192FEF752FF0299CA685D
:10369000101AC8600B98CA681018C86008690199A8
:1036A000FEF746FF02990A69101A08610A980A692A
:1036B0001018086148690199FEF73AFF02994A69B2
:1036C000101A486109984A6910184861FFE70CB060
:1036D00080BDC046B0020020300100206D060020F1
:1036E0008AB00A46034609900891099800680028A4
:1036F000019200931EDAFFE70998406800280CDA6F
:10370000FFE70998406840420590099800680690D4
:103710000320800302A908800BE009984068059007
:1037200009980068404206900120800302A90880A1
:10373000FFE708E00998416806910068059002A833
:1037400000210180FFE70898002181800791FFE7B1
:1037500007980D2837DCFFE70698002815DAFFE701
:1037600005980699079A1141401A03900698059901
:10377000079A114140180490079840001949085AC7
:1037800008998A88101A888014E005980699079A83
:1037900011414018039006980599079A1141401A63
:1037A0000490079840000F49085A08998A88101811
:1037B0008880FFE70498069003980590FFE7079834
:1037C000401C0790C4E7059805494143081408992F
:1037D0000860029808998A88101888800AB0704793
:1037E000749B00007AAA000880B500F001F880BD43
:1037F00010B58CB07F480078032800D0A6E07E4842
:103800000078062800D0A1E004F038F9CF4AD16250
:103810009062D06A916A536B126B0024891A224617
:103820005241521E9841012364290B900A92099437
:10383000089301D30998089008980B9900290790DC
:1038400001D009980790079800287ED1FFE7BF486C
:10385000816AC26A42630163974952228A5AD2003E
:103860000A230690104605911946FDF753FA06996A
:1038700048843948394A82805822059B9A5E0490D0
:103880001046FDF7CDFC0022354B0392FDF79EFB61
:10389000344B039AFDF702FCFDF7EAFC5421069A2B
:1038A000505292200599085E049B9C88A0420FDD2F
:1038B000FFE7A6485421415E274A12884A437D21EA
:1038C000C90002901046FDF73BFA029908840EE009
:1038D0009E485421415E204A52884A437D21C900B6
:1038E00001901046FDF72CFA01990884FFE79748EC
:1038F0002021415E2222805E814204DDFFE7934861
:10390000418C0184FFE79148C1692022805E814299
:1039100005DAFFE78D48018F491C01870BE08B48D2
:103920003821405E012805DBFFE78848018F491EEA
:103930000187FFE7FFE785483821405E0649C988CF
:10394000884201DDFFE7FFE7FFE7FFE70CB010BDAE
:10395000300100206D06002098000020AE07000016
:103960000088B3400000E04080B500F001F880BD61
:1039700080B584B0002003901E480078032836D11B
:10398000FFE71D480078062831D1FFE700F038F83E
:1039900000F094F86D480169039118490C22825E89
:1039A000098809B20290104602F02BFB0399081A0D
:1039B000039002988069012189020191FEF7B8FD08
:1039C00002998A69101A886103988A6910188861B7
:1039D00088690199FEF7ACFD0299C861C8690028A1
:1039E00004DAFFE759480021C161FFE7FFE704B0AF
:1039F00080BDC046300100206D060020A0000020E0
:103A000080B584B00020039050483C300390039868
:103A1000FEF7F8FC03980068002805DAFFE7039832
:103A2000016849420160FFE703984068002805DA11
:103A3000FFE70398416849424160FFE703988068C7
:103A4000002805DAFFE70398816849428160FFE7B3
:103A50003E480168012292020290084611460192F6
:103A6000FEF766FD02990A68101A0860039802685A
:103A70004368D218806810180A681018086008682F
:103A80000199FEF755FD0299C86088680199FEF713
:103A90004FFD02998A68101A886007485222805A9E
:103AA0008A681018886088680199FEF741FD0299BC
:103AB000486104B080BDC0461804002080B584B0C1
:103AC000002003902148483003900398FFF7A0F9A5
:103AD00003980068002805DAFFE703980168494267
:103AE0000160FFE703984068002805DAFFE70398C4
:103AF000416849424160FFE703988068002805DA81
:103B0000FFE70398816849428160FFE70F484168F9
:103B1000012292020290084611460192FEF708FD2A
:103B200002994A68101A4860039802684368D218DC
:103B3000806810184A681018486048680199FEF7B4
:103B4000F7FC0299086104B080BDC0463003002034
:103B500080B58AB00146099009981B4A10601B483D
:103B6000002303601A4803601A480891079206F080
:103B7000F5F907990968184A0690104606F0EEF91B
:103B800007990A68531C002B0590049212D0FFE796
:103B90000498022809D0FFE7049803280FD1FFE713
:103BA000104806F0DBF9039009E00D4806F0D6F95D
:103BB000029004E0094806F0D1F90190FFE7FFE721
:103BC000FFE701F0C3F8FCE73002002064000020AA
:103BD0003C00002074AE0008E0AD00087AAD00089B
:103BE000F4AD000853AE000882B0374800880028C2
:103BF0005DD0FFE700200190FFE701980E2818DC58
:103C0000FFE73148008800B2019901228A40104242
:103C100003D0FFE70198009003E02F480088009050
:103C2000FFE700982C490880FFE70198401C0190AD
:103C3000E3E727480188491C018000887D2189002D
:103C4000884205D1FFE70120C003244908602DE028
:103C50001F4800887D21C900884218D1FFE71B4812
:103C60000188491C01800121C9031A4A116000889A
:103C700019490988884205D1FFE715487D210901C6
:103C8000018003E0124800210180FFE70DE01048A9
:103C900000887D214901884206D1FFE70B480021B9
:103CA00001800B480180FFE7FFE7FFE709E00748D5
:103CB00000210180064801800120C00305490860F9
:103CC000FFE702B07047C0469C0300208E0300202F
:103CD00090030020100000488C03002014000048CE
:103CE00080B588B0474848490160484880060028A8
:103CF00006D0FFE7454840303F218843079002E067
:103D000042480790FFE70798414908603F4880060E
:103D1000002806D0FFE73D4840303F218843069009
:103D200002E03A480690FFE706983749401A3949B9
:103D3000086036488006002806D0FFE73348403048
:103D40003F218843059002E030480590FFE7059841
:103D50002D49401A8008304908602C488006002808
:103D600006D0FFE7294840303F218843049002E015
:103D700026480490FFE704982349401A8009274900
:103D8000086022488006002806D0FFE71F48403020
:103D90003F218843039002E01C480390FFE703980B
:103DA0001949401A8008194989060029029006D04D
:103DB000FFE7164840303F218843019002E0134856
:103DC0000190FFE701981049401A81090298FCF719
:103DD000A1FF134908600D488006002806D0FFE7C0
:103DE0000A4840303F218843009002E00748009095
:103DF000FFE700980B4908600B480C49016008B0C8
:103E000080BDC0465C0100200000000808B2000828
:103E100050010020540100205801002060010020C2
:103E2000480100204C01002094030020E5420008D6
:103E300089B00A460346089007910798C0780F2179
:103E4000084002900798C078C006002801920093AD
:103E500006D5FFE707988078029901430291FFE7B2
:103E60000898039005A800210170FFE705A80078D5
:103E7000072820DCFFE70598800006A9087007984E
:103E8000008805A9097801228A4010420DD0FFE779
:103E90000398006806A909780F228A409043029A85
:103EA0008A40104303990860FFE7FFE70598401C2C
:103EB00005A90870DAE70898001D03900798407874
:103EC000049005A800210170FFE705A800780728E5
:103ED0001FDCFFE70598800006A90870049805A973
:103EE000097801228A4010420DD0FFE7039800684C
:103EF00006A909780F228A409043029A8A4010430B
:103F000003990860FFE7FFE70598401C05A90870C2
:103F1000DBE70798C078282807D1FFE707980088D3
:103F200008994A6902434A610CE00798C07848281A
:103F300007D1FFE70798008808990A6902430A61D8
:103F4000FFE7FFE709B07047B0B589B013460C46EC
:103F50000546089007A8017006A90A700178072293
:103F60001140890005AA1170007807280394029374
:103F7000019504DCFFE708982030009003E00898E2
:103F800024300090FFE7009804900498016805AA87
:103F900012780F239340994306AB1B789340194343
:103FA000016009B0B0BD86B00A460346059004A87A
:103FB000018005998968008801400120002903914A
:103FC00002930192009001D103980090009806B0EE
:103FD0007047000082B0014601900198054A0280B6
:103FE00001980122827001980422C270009102B0EF
:103FF0007047C046FFFF000010B584B00146039033
:1040000014480068144A1040C00001AB18801348DF
:1040100000681040C00002AB18800198039B5C8DC3
:10402000201A400098840298039B9C8D201A40001F
:10403000D8840398838C5B42C48C1B1B038508487F
:1040400000681040C000039A5023D052009104B081
:1040500010BDC04618240140FF0F00001828014081
:104060001C2401400248016801229143016070470D
:10407000140003407047000083B00146019001988E
:104080000028009104D1FFE702A80021018007E089
:104090000198064908600648006802A90880FFE701
:1040A00002A8008800B203B07047C0460004034075
:1040B000040403407047000080B582B0AC4801683A
:1040C00013310160FEF784F8002001900199FEF79A
:1040D0005FF8064908600868C04305490860A748BA
:1040E00001681339016002B080BDC0465000002055
:1040F0007800002080B582B001A8012101709C48A1
:104100000168891C0160FCF7A9FA012804D0FFE7C7
:1041100001A80021017004E098480168891E01602F
:10412000FFE701A8007802B080BDC04680B586B028
:1041300053480078002833D1FFE78D4801683F31AC
:1041400001605848006880475149086008680428A1
:1041500005901BD80598C0467844007940008744F4
:10416000021415140B00854801683F39016044486A
:104170000178491C017012E0804801683F390160F4
:104180003F480178491C017009E0FFE7464805F007
:10419000E5FE3F2104900846FFF7DAFCFFE76DE0FB
:1041A00037480078012868D1FFE7714800687349F3
:1041B00009684840401C002854D1FFE73148006896
:1041C000314909684840401C00284BD1FFE730487E
:1041D0000068042823D1FFE7654800682E49096874
:1041E000884211D1FFE76248006826490968401AF1
:1041F000A7214900884207D1FFE75D4800210160FF
:104200005E48C943016009E0244805F0A7FEA721E4
:10421000490003900846FFF79BFCFFE714E0544871
:10422000006818490968401AFF21483188420AD0BD
:10423000FFE7184805F092FEFF214831029008463A
:10424000FFF786FCFFE7FFE7494800680D49086073
:104250004A4800680C49086009480021017010486C
:10426000017009E0094805F079FEFF21483101900D
:104270000846FFF76DFCFFE7FFE7FFE706B080BDEC
:1042800075060020480000207000002050AF000894
:10429000700600201BAF000888030020CAAE00088B
:1042A0007406002098030020D7AF000880B582B0C4
:1042B00001A8012101702E480168891C0160FCF7EA
:1042C00099FA012804D0FFE701A80021017004E059
:1042D0002A480168891E0160FFE701A8007802B042
:1042E00080BDC04680B584B003A801210170F74AA3
:1042F00010680B301060402002F0ACFBFDF768FF47
:1043000000200190FFE701981A49096888420DD200
:10431000FFE71C48006801998900405800BA164917
:104320000860FFE70198401C0190ECE71248006824
:104330000290E74908680B380860E44908681130C2
:10434000086002980E4909680968884204D0FFE7AE
:1043500003A90020087004E0DD49086811380860EE
:10436000FFE7FDF735FF03A8007804B080BDC04625
:10437000300000205801002000300240580000208A
:104380004C0100205C01002080B588B007900691A8
:10439000059204A9002008700798039006980290DF
:1043A0000598019038480068384909684840401C21
:1043B00000284FD1FFE7344800680299884218D39B
:1043C000FFE7284900220846FCF70FFC012804D12A
:1043D000FFE704A90420087003E004A90320087083
:1043E000FFE70398284908600398C04327490860FD
:1043F0002FE02548006801990F39884205D3FFE76F
:104400000198133820490860FFE71F4800681549E4
:10441000091D0022FCF7E9FB012815D1FFE71A4826
:10442000006801991339884205D1FFE701980F38D8
:1044300015490860FFE71448016810310160006801
:10444000C0431249086003E004A903200870FFE795
:10445000FFE703E004A901200870FFE704A8007843
:1044600008B080BD0000002080B502F027FE05489E
:10447000016803208143044801600068C043034988
:10448000086080BD8405002020000020240000205A
:1044900080B582B06846002101707B2002F0C4FB29
:1044A000002818D1FFE77C2002F0BEFB002812D1C3
:1044B000FFE77A2002F0B8FB002818D0FFE77D2044
:1044C00002F0B2FB002812D1FFE77E2002F0ACFB25
:1044D00000280CD1FFE72F48016801221206114382
:1044E00001600020022100F0D9FDFFE7FEE77D20FA
:1044F00002F09AFB00280ED1FFE77E2002F094FB29
:10450000002808D0FFE72348016801221206114362
:10451000016005F089FB7A2002F086FB002812D0AA
:10452000FFE77D2002F080FB00280CD0FFE77E2013
:1045300002F07AFB002806D1FFE740203F2105F07A
:10454000A6FAFFE7FEE77D2002F06EFB002812D0FE
:10455000FFE77E2002F068FB00280CD0FFE70D4843
:104560000168012213061943016068460270009831
:1045700001A9087009E007480168012212061143E9
:104580000160009801A90870FFE701A8007802B057
:1045900080BDC0462410024080B584B04948002147
:1045A0000160494801604B20C0010391FDF72EFDD9
:1045B000B04803990160B048CA430260FFF776FE35
:1045C000012804D0FFE70320FFF7C2FAFFE7A9485C
:1045D0000168491D0160FFF75BFF012804D0FFE778
:1045E0000520FFF7B5FAFFE7A3480168491F0160FE
:1045F000FFF776FB374800688047012804D0FFE7C3
:104600000B20FFF7A5FAFFE7262005F01BFB00288B
:1046100004D1FFE72620FFF79BFAFFE772B602F00E
:104620004DFD2D48016801204007C84AFCF772FA89
:10463000012806D0FFE762B60020C043FFF788FAE2
:10464000FFE702F03BFD24480168012040070022FB
:10465000FCF760FA012806D0FFE762B60020C043ED
:10466000FFF776FAFFE762B6824800210160824ACE
:10467000C943116002900192FFF71EFD00F0E2F8BD
:1046800002980168353101603149324A0A60324A84
:104690004A60324A8A60324ACA6001990A68353AE9
:1046A0000A607C2005F0CEFA002804D1FFE77C20C8
:1046B000FFF74EFAFFE70948AA210160FBF700FD6A
:1046C00004B080BD640000203C00002030000020C9
:1046D0005800002094030020880500200430024088
:1046E00081B0684601210170F04801683B310160EA
:1046F000F2480068F249884204D0FFE7684600218A
:104700000170FFE7ED484068EE49884204D0FFE7BA
:10471000684600210170FFE7E8488068EA4988425E
:1047200004D0FFE7684600210170FFE7E348C06856
:10473000E649884204D0FFE7684600210170FFE7A0
:10474000DB4801683B3901606846007801B070477A
:10475000F01B0020EEEEEEEECCCCCCCCBBBBBBBB5A
:10476000DDDDDDDD80B582B001A803210170CF4918
:104770000A681D320A60007803280BD1FFE700F0B9
:10478000FDF8002804D1FFE701A80521017000E031
:10479000FFE7FFE701A80078032804D1FFE701A89D
:1047A0000A210170FFE7EE4801681D39016001A888
:1047B000007802B080BDC04680B584B0E44801688E
:1047C0001731016000F092F901460A28039127D8B9
:1047D0000398C04678440079400087442020202078
:1047E0000E21212117200500ED48016817390160CD
:1047F00058480178491C01701BE0104805F0AEFBD9
:10480000172102900846FFF7A3F912E00A4805F0C5
:10481000A5FB172101900846FFF79AF909E0FFE789
:10482000074805F09BFB172100900846FFF790F919
:10483000FFE704B080BDC04675AF0008F6AE0008C3
:104840009FAE000880B582B0D4480168173101607E
:10485000FFF788FF01A9087008780A2804D0FFE74D
:104860001720FFF775F9FFE7CD4801681739016098
:1048700002B080BD300000205800002080B584B018
:1048800086480068314988425DD1FFE78348006867
:10489000834909684840401C002849D1FFE77F4808
:1048A000002101602B480078002814D1FFE7FFF7B2
:1048B00021FC012809D0FFE7284805F04FFB022121
:1048C00003900846FFF744F904E022480178491CA8
:1048D0000170FFE72BE01F480078012814D1FFE7A3
:1048E00000F040F9012809D0FFE71B4805F036FB2E
:1048F000352102900846FFF72BF904E015480178AE
:10490000491C0170FFE711E012480078022803D12A
:10491000FFE7FFF751FF08E00E480078032803D1B6
:10492000FFE7FFF703FCFFE7FFE7FFE7FFE709E02B
:10493000074805F013FBFF21483101900846FFF7B7
:1049400007F9FFE7FFE704B080BDC046AAAAAAAAFC
:1049500050AF000874060020F3AF00089EAF0008B7
:1049600080B505480168E24A11600068C043E1492A
:104970000860FDF72DFC80BD5C01002080B584B08F
:1049800003A8012101700290019104F083FB0198BA
:104990008107102208460091114603F031FD00986E
:1049A000019903F04BFD0C210098019A03F00EFDD4
:1049B0000298007804B080BD80B584B0FFF754FD44
:1049C0003448002101603448CA4302603348016022
:1049D000334802603348016033480260C3480160D5
:1049E000CA480260334801603348026033483449A2
:1049F000016034494160344981603449C1603448C0
:104A000000687D21C900FCF785F903F0C3F900288F
:104A100009D0FFE72F4805F0A1FA2B2103900846A3
:104A2000FFF796F8FFE7FDF7D3FB0020029002990D
:104A3000FDF7AEFBB14908600868C043B0490860A3
:104A4000FFF74EF9FFF78CFFA9480168224805F0EF
:104A500085FA22490968FF2248324A43A7214900C2
:104A600051181F4A11601F491F4A0A606249029A81
:104A70000A600190FFE760480068002801D1FFE765
:104A8000F9E79A4800210160A048C943016004B0D9
:104A900080BDC0463C000020640000204000002093
:104AA0006800002048000020700000203000002036
:104AB00058000020340000205C000020F01B002083
:104AC000EEEEEEEECCCCCCCCBBBBBBBBDDDDDDDD9E
:104AD00028010020BAAF000804B0000860010020DF
:104AE0008803002098030020FD4B000880B582B0A9
:104AF00001A8032101707D4801683D31016015481E
:104B00000068154909684840401C002813D1FFE798
:104B100039480068114909684840401C00280AD1FA
:104B2000FFE735480068002805D0FFE700F03AF8B5
:104B300001A9087003E001A808210170FFE773488C
:104B400001683D39016001A8007802B080BDC0460F
:104B50003000002038000020600000206C000020A1
:104B60005800002080B582B001A8012101705F4883
:104B7000016835310160FFF7B3FD012804D0FFE77C
:104B800001A80021017004E0604801683539016026
:104B9000FFE701A8007802B080BDC04630000020C9
:104BA0005800002081B06846032101700F4800685A
:104BB0000F49884204D8FFE768460421017011E0DC
:104BC0000A4800680B49884204D3FFE7684604217D
:104BD000017006E068460A21017007480021016063
:104BE000FFE7FFE76846007801B0704754000020F7
:104BF00089480000470E01004400002080B584B0C1
:104C000003A902200870394908683F300860384815
:104C10000068384909684840401C002859D1FFE71E
:104C20003348006834490968884225D2FFE70020EC
:104C30000190FFE701983649096888420DD2FFE7E5
:104C40002B48006801998900405800BA2D49086036
:104C5000FFE70198401C0190ECE72D4802682448CA
:104C600001689200891801600068C043214908600A
:104C700003A9002008702BE020480068204909683B
:104C80004840401C00281ED1FFE718490868C01D95
:104C900008601948006802901A4800681A490968B3
:104CA0000968884204D1FFE703A90420087003E0E3
:104CB00003A903200870FFE7FFF752FE13490868B5
:104CC000C01F086003E003A901200870FFE7FFE7A9
:104CD00003E003A901200870FFE70C4908683F388A
:104CE000086003A8007804B080BDC04630000020F2
:104CF0004C000020740000205001002050000020D3
:104D000078000020003002404C01002058000020B4
:104D1000480100202448014901607047CCCC0000C4
:104D200084B0014603AA108007480068128810402A
:104D30000122002802900191009201D10298009076
:104D4000009804B07047C0460C3000401648014936
:104D500001607047AAAA000080B582B0014601AA8E
:104D600010701078034A1060009101F00AFE02B042
:104D700080BDC0460430004080B582B0014601AA23
:104D800010801088E24A1060009102F08DF902B0A4
:104D900080BDC04682B0014601AA10801088024A38
:104DA0001060009102B0704700300040F0B58DB047
:104DB00001460C900C98B84A02610C98AC22854BC5
:104DC00083520C98AE236024C4520C982723DB0036
:104DD0000524C4520C984D239B000025C5500C9807
:104DE000A3010324C4520C984F239B00C5500C9878
:104DF00051239B00784CC4500C982923DB00774C3E
:104E0000C4500C98B023764CC4520C98B223754C05
:104E1000C4520C98B623744CC4520C987D24E600FE
:104E2000D227C6530C98BA26704F87530C9824018A
:104E3000C22684530C98C42684530C98C6268453E7
:104E40000C98C8246A4E06530C98D424694E065315
:104E50000C98D624684E06530C98D827C6530C9845
:104E6000B4260B9065480A910B9988530C98815A87
:104E700063480994089707950693FBF74BFF0C9935
:104E8000DE2288520C98E4210A2242520C98F82122
:104E90005C4A42520C98FA21022343520C98FC219E
:104EA00042520C98FE21584A42520C980699405E94
:104EB00001F0E0F80C998322520088520C98069970
:104EC000405A0C9A41239B00D0520C9801221302A5
:104ED000079CC4500C9843239B004C4DC5520C9822
:104EE00011231B01A326C6520C9887235B00484F51
:104EF000C7520C9889235B004649C1520C98089B05
:104F0000C05E0591049203950296019701F0B2F8F4
:104F10000C998D22520088520C980899405A0C9A8C
:104F20002323DB00D0520C9845229200079B83502C
:104F30000C9809225201039C84520C984922920039
:104F4000029D85520C9891225200019E86520C9827
:104F500093225200059F87520C98099A805E01F0B7
:104F600089F80C999722520088520C980999405A56
:104F70000C9A4B239B00D0520C982522D200079B01
:104F800083500C987222244C84520C987422234C27
:104F900084520C987622224C84520C987822214C10
:104FA00084520C98049A94037A2544530C987C24D8
:104FB00002530C987E2403530C98802403530C98BE
:104FC000862403530C98882403530C98922403538B
:104FD0000DB0F0BD102700006EA30100A8FB00007B
:104FE0007C4500003A2800003B2F0000AE0700007F
:104FF000204E000066060000D7350000BD690000A5
:10500000006CDC0299390000F8FF0000281C000049
:10501000FEFF0000FDFF0000B07C00002B1600002A
:10502000990900003333000080B586B00020C143E9
:105030000122059008461146049204F06BFD1420ED
:10504000059901F0D5FB134803900499049AFCF7E5
:105050005AFC03980499FCF708FC0D20022101F08A
:10506000C7FB0D480290049903F0CAF9029804990D
:10507000059A03F035FB80200299019008460199BA
:1050800003F0BEF902980199059A03F029FB06B0D6
:1050900080BDC04600280140002C014010B584B0FE
:1050A0000A46034603AC208002A801800120019239
:1050B000009301F07DFEFFE7612001F0B5FD0028BF
:1050C00001D1FFE7F8E71148FFF764FE03A8007875
:1050D000FFF742FE01F055FC01F0E6FFFFE70C4848
:1050E000006802A9098888420AD0FFE70748FFF74D
:1050F00051FE02A800880649086001F0D5FFEEE7DE
:10510000FFF724FEFFF706FE04B010BD5555000062
:105110000830004010B582B0514800210180DC48C1
:105120005221415AB022805E814215DDFFE73448AA
:105130000188491C01800088A1280CDBFFE7484852
:105140000188082211430180B94801680122D20375
:1051500091430160FFE703E0294800210180FFE758
:10516000EC485221415AB222805E814215DAFFE7B3
:1051700024480188491C01800088A1280CDBFFE736
:1051800037480188042211430180E4480168012264
:10519000D20391430160FFE703E01A480021018038
:1051A000FFE7E248006900698021084220D0FFE75C
:1051B00015480178491C0170DC48016980220023F0
:1051C00001900846114600921A4603F089FA0198A8
:1051D0000169009AD3430B6121490B8802242343C0
:1051E0000B80CE490B680124E403A3430B60FFE767
:1051F0001B48008805490A8802430A8002B010BD96
:10520000A0030020A2030020780500209E030020B8
:1052100080B5C24801680122D20391430160FFF7C3
:1052200079FF80BD80B5EF4804F004FAFEF7DCFC9E
:105230000B480088002812D1FFE70A480188491C62
:1052400001800088E749C822895A884206DDFFE7C5
:1052500000F0C4FB034800210180FFE7FFE780BDA9
:105260009C030020A403002080B5AC480168012203
:10527000D20391430160DB4804F016FE00F0B2FB5C
:1052800080BDC04680B5D74804F0D4F980BDC04683
:1052900080B582B0D34801462431024630320190B5
:1052A0000846114600F072FC40200021019A11527C
:1052B000105A422150521046FDF720FE0198018CF1
:1052C00062228152603001994A8C6423CA52FAF7F3
:1052D00015FF01990090084601F05EFB02B080BD09
:1052E00080B582B0BF48BC21425A521C425256215E
:1052F000405E012813DBFFE7BA48B821415A428FCC
:10530000511841873A21415EC022805E814205DD0D
:10531000FFE7B448C021415A4187FFE71BE0B1488D
:105320005621405E002815DAFFE7AE48B821415A01
:10533000428F511A41873A21415EC022805E40422D
:10534000814206DAFFE7A748C021415A4942418716
:10535000FFE7FFE7FFE7A348019004F06BF958204F
:105360000021019A11525620105EFBF7FDFC9E4968
:10537000884203DCFFE700F039FBFFE7EF48BC2180
:10538000415AC222805A814207DDFFE700F03EFB0E
:10539000EA48BC2100224252FFE702B080BDC0466D
:1053A00080B503F09FFC00280ED0FFE7E3485621AC
:1053B000405EFBF7D9FC5849884203DBFFE700F069
:1053C000C9FB00E0FFE7FFE780BDC046704780B53E
:1053D00000F046FB80BD000080B5D84804F02AF9F3
:1053E00080BDC04680B582B04C4801680122D2031E
:1053F00091430160D1480146243102463032019088
:105400000846114600F0C2FB00200199488762223D
:10541000885260316422019B98520846FAF76EFE6A
:105420006A21019A5052104601F0B6FA02B080BDCE
:10543000442C014080B582B014480188491C018089
:10544000BE4901900846009104F0F4F801980188E3
:10545000C622009B9A5A914206DDFFE700F018FB36
:105460000A4800210180FFE7B4485621405EFBF75F
:105470007BFC2949884206DBFFE700F009FB034873
:1054800000210180FFE702B080BDC046A6030020D6
:105490001804002080B584B002A800218180029108
:1054A000A6485621405EFBF75FFC1B49884216DB8D
:1054B000FFE71A4801680122D203114301609F48A7
:1054C000F021425A531C4352D221405A824205DBFA
:1054D000FFE704F0C5F900F0EDFAFFE706E00F483A
:1054E00001680122D20391430160FFE7F94862217C
:1054F00000224252014660316423C25201900846A4
:10550000FAF7FCFD01990090084601F045FA04B055
:1055100080BDC04618040020AF070000442C0140A5
:1055200080B5FB4804F086F880BDC0461804002012
:1055300080B582B0FA4801462431024630320190EB
:105540000846114600F022FB019801F0C1F901F074
:10555000F5F80198FDF7D2FC0198018C6222815286
:10556000603001994A8C6423CA52FAF7C7FD6A2158
:10557000019A5052104601F00FFA02B080BDC046A9
:1055800080B582B0E648019004F054F85A200199A1
:105590000A5A5823CB5AD21A12B2F8310090104648
:1055A000FAF718FF019948875620085E00F0C4FCFE
:1055B00051218900019A5118FBF706F80199C86535
:1055C000C86D00F0B1FC0199009A8852885EFBF723
:1055D000CBFBC149884203DCFFE700F06FFAFFE72D
:1055E00002B080BD1804002065060000B0B586B08A
:1055F000ED480146243102463032049008461146F7
:1056000000F0C4FA5A200499085E4D4900F0E6FC07
:105610004021049A535A18185052505A422150525D
:105620001046FDF76BFC0498018C622281526030B9
:1056300004994A8C6423CA52FAF760FD6A21049ADD
:105640005052104601F0A8F99A200499085A922263
:1056500088525620085E01280CDBFFE7EA489221B9
:10566000405E002805DAFFE7E74892210122425216
:10567000FFE70BE0E4489221405E012805DBFFE7ED
:10568000E14892212F4A4252FFE7FFE7DE48018EB0
:105690008222815201467231428E8423C252028C90
:1056A0008A23C252428C8C23C25203900846FAF7D6
:1056B000D0FE2548018809B202900846FAF752FE4A
:1056C00005A90880000C4880488820494880059832
:1056D00008808620039A105A404200B20B881BB201
:1056E0000191194600F07AFC0221019A515E88234B
:1056F000039CE35E0090184600F070FC0099081AC5
:10570000134A10801088039A943200B21146FAF7B7
:10571000FFFE0299088008880E4A10804020039BF3
:105720001C5A1588641B0C4D2C80185E0B4C206095
:10573000108800B20A4A106006B0B0BD18040020FC
:1057400088080000FFFF0000A8030020AC03002031
:10575000AA030020760600206C05002070050020BA
:105760007405002080B586B0D148BE21425A521C33
:1057700042525621405E012805DBFFE7CC48CE218E
:10578000415A41870CE0CA485621405E002806DA9B
:10579000FFE7C748CE21415A49424187FFE7FFE76B
:1057A000C3485621415E0590084600F0C5FB5121D3
:1057B0008900059A5118FAF707FF0599C865C86D61
:1057C000BA228A5E0490104600F0B6FB049981422A
:1057D0000ADDFFE7DA48BA21415E0390084600F08F
:1057E000ABFB0399C86517E0D548C16DBA22805E4E
:1057F000029100F0A1FB4042029981420BDAFFE7DF
:10580000CF48BA21415E0190084600F095FB404226
:105810000199C865FFE7FFE7C948C16D00900846D8
:1058200000F082FB5A21009A5052104603F002FF0A
:1058300056200099085EFBF797FA2749884203DC57
:10584000FFE700F047F9FFE7BD485821415ED42249
:10585000805A814206DBFFE7B9485621405E0028A6
:105860000FDCFFE7B6485821415ED422805A4042FF
:1058700081421DDCFFE7B2485621405E002817DA5E
:10588000FFE7AF48BE21415AC422805A81420EDD53
:10589000FFE7124800780121084203D0FFE700F03B
:1058A0001DF9FFE7A648BE2100224252FFE70FE0A4
:1058B000A348BE21415AC422805A814207DDFFE736
:1058C0003A4801880122520211430180FFE7FFE7B5
:1058D00006B080BD1804002065060000B500002059
:1058E00080B59748DA21415A56228152805EFBF7F3
:1058F0003BFA3949884203DBFFE704F01DF802E078
:1059000000F030F9FFE78E4803F094FE80BDC046FA
:105910001804002080B58A4803F08CFE80BDC04684
:105920001804002080B5974800788000084908587E
:105930008047FFF7EFFB1D480088002807D0FFE7EE
:1059400000F096F803480178491C0170FFE780BD1C
:10595000D8AC0008A806002080B57948DA21415A61
:1059600056228152874800788000024908588047B3
:1059700080BDC046F8AC000880B5554801680122DA
:10598000D203914301606E485021415A5222815204
:10599000FFF7C0FB05480088002803D0FFE700F0B0
:1059A000E5F8FFE780BDC046180400209C030020F6
:1059B00080B56348DA21415A56228152805EFBF756
:1059C000D3F90549884203DBFFE700F0D3F8FFE78E
:1059D0005B4803F02FFE80BDAF0700006A4802213C
:1059E00001707047684802210170704738480168AB
:1059F0000122D303994301605148F021002343520F
:105A0000604802707047C046180400204C4840218E
:105A1000415A090494228150DA21405E012809DBB1
:105A2000FFE7474851218900484A42502921C900CF
:105A3000425010E04248DA21405E00280ADAFFE7CF
:105A40003F48512189003F4A42502921C9003E4A1E
:105A50004250FFE7FFE74B48052101707047C04601
:105A60003748F02100224252464801210170704718
:105A700080B5174801680122D20391430160424872
:105A8000002101703F4801702D4804F00DFA80BDDF
:105A900080B582B02A48019004F006FAF020002177
:105AA000019A115237480121017002B080BDC046F1
:105AB000180400203348022101707047044801682F
:105AC0000122D203914301602E48072101707047E3
:105AD000442C01402B480721017070471848DA21F7
